:1000000000000320D50100005102000023E300009E
:1000100055020000570200005902000000000000D5
:1000200000000000000000000000000011040000BB
:100030005D0200000000000041040000B9840000DF
:10004000DDDF0000E5DF0000EDDF0000F5DF000090
:10005000FDDF000005E000000DE0000015E00000FD
:100060001DE0000025E000002DE0000035E000006C
:100070003DE0000045E000004DE0000055E00000DC
:100080005DE0000065E000006DE0000075E000004C
:100090007DE0000085E000008DE0000095E00000BC
:1000A0009DE00000A5E00000ADE00000B5E000002C
:1000B000BDE00000C5E00000CDE00000D5E000009C
:1000C000DDE00000E5E00000EDE00000F5E000000C
:1000D000FDE0000005E100000DE1000015E1000079
:1000E0001DE1000025E100002DE1000035E10000E8
:1000F0003DE1000045E100004DE1000055E1000058
:100100005DE1000065E100006DE1000075E10000C7
:100110007DE100000538000085E100008DE1000070
:1001200095E100009DE10000A5E10000ADE10000C7
:10013000B5E10000BDE10000C5E10000CDE1000037
:10014000D5E10000DDE10000E5E10000EDE10000A7
:10015000F5E10000FDE1000005E200000DE2000015
:1001600015E200001DE2000025E200002DE2000083
:1001700035E200003DE2000045E200004DE20000F3
:1001800055E200005DE2000065E200006DE2000063
:1001900075E200007DE2000008360100000000204A
:1001A00030030000083601000000FF1F00000000BF
:1001B00008360100000000140000000000040020C8
:1001C000883300000000FF1F000000000000001442
:1001D0000000000010B572B607F07EFA0D4B07E084
:1001E00003F10C049A685968186800F019F823465E
:1001F000094A9342F4D306E01C46596854F8080BA8
:1002000000F01DF82346054A9342F5D362B603F089
:10021000D3FCFEE798010000BC010000D4010000FF
:10022000002393420AD210B450F8044B41F8044B17
:1002300004339342F8D35DF8044B704770470023B2
:100240008B4204D2002240F8042B0433F8E77047B5
:10025000FEE7FEE7FEE7FEE7FEE7FEE7FEE7FEE776
:10026000FEE7FEE7FFFFFFFFFFFFFFFFFFFFFFFFD0
:10027000FFFFFFFFFFFFFFFFFFFFFFFFFFFFFFFF8E
:10028000FFFFFFFFFFFFFFFFFFFFFFFFFFFFFFFF7E
:10029000FFFFFFFFFFFFFFFFFFFFFFFFFFFFFFFF6E
:1002A000FFFFFFFFFFFFFFFFFFFFFFFFFFFFFFFF5E
:1002B000FFFFFFFFFFFFFFFFFFFFFFFFFFFFFFFF4E
:1002C000FFFFFFFFFFFFFFFFFFFFFFFFFFFFFFFF3E
:1002D000FFFFFFFFFFFFFFFFFFFFFFFFFFFFFFFF2E
:1002E000FFFFFFFFFFFFFFFFFFFFFFFFFFFFFFFF1E
:1002F000FFFFFFFFFFFFFFFFFFFFFFFFFFFFFFFF0E
:10030000FFFFFFFFFFFFFFFFFFFFFFFFFFFFFFFFFD
:10031000FFFFFFFFFFFFFFFFFFFFFFFFFFFFFFFFED
:10032000FFFFFFFFFFFFFFFFFFFFFFFFFFFFFFFFDD
:10033000FFFFFFFFFFFFFFFFFFFFFFFFFFFFFFFFCD
:10034000FFFFFFFFFFFFFFFFFFFFFFFFFFFFFFFFBD
:10035000FFFFFFFFFFFFFFFFFFFFFFFFFFFFFFFFAD
:10036000FFFFFFFFFFFFFFFFFFFFFFFFFFFFFFFF9D
:10037000FFFFFFFFFFFFFFFFFFFFFFFFFFFFFFFF8D
:10038000FFFFFFFFFFFFFFFFFFFFFFFFFFFFFFFF7D
:10039000FFFFFFFFFFFFFFFFFFFFFFFFFFFFFFFF6D
:1003A000FFFFFFFFFFFFFFFFFFFFFFFFFFFFFFFF5D
:1003B000FFFFFFFFFFFFFFFFFFFFFFFFFFFFFFFF4D
:1003C000FFFFFFFFFFFFFFFFFFFFFFFFFFFFFFFF3D
:1003D000FFFFFFFFFFFFFFFFFFFFFFFFFFFFFFFF2D
:1003E000FFFFFFFFFFFFFFFFFFFFFFFFFFFFFFFF1D
:1003F000FFFFFFFFFFFFFFFFFFFFFFFFFFFFFFFF0D
:10040000FFFFFFFFFFFFFFFFFFFFFFFFFEFFFFFFFD
:10041000074B19680868B0E8F04F80F30988BFF30C
:100420006F8F4FF0000080F311887047AFF30080AA
:100430006C36002000BF00BFFFFFFFFFFFFFFFFF84
:10044000EFF30980BFF36F8F154B1A681EF0100F82
:1004500008BF20ED108A20E9F04F10602DE9090057
:100460004FF0200080F31188BFF34F8FBFF36F8FE1
:1004700008F0B0FC4FF0000080F3118809BC196847
:100480000868B0E8F04F1EF0100F08BFB0EC108AFB
:1004900080F30988BFF36F8F704700BFAFF3008010
:1004A0006C36002000BF00BFFFFFFFFFFFFFFFFF14
:1004B00001F0FF01102A2BDB10F0070F08D010F815
:1004C000013B013A8B422DD010F0070F42B3F6D119
:1004D000F0B441EA012141EA014122F007047FF032
:1004E00000070023F0E80256083C85EA010586EA89
:1004F000010685FA47F5A3FA87F586FA47F6A5FAC5
:1005000087F68EB9EED1F0BC01F0FF0102F00702D0
:1005100032B110F8013B013A83EA010313B1F8D17B
:100520000020704701387047002D06BF354603385C
:10053000073815F0010F07D1013015F4807F02BF95
:10054000013015F4C03F0130F0BC0138704700BFE6
:100550002DE9F04FA1B01F4600231C939B4B049044
:100560001B68179218460E4605930FF0EAFC4FF0F1
:10057000000A04464FF0000B1B961B9A13780D2BB4
:1005800032D8092B36D2002B3ED000230C931B9D72
:100590002B78302B40F0A9806B78582B01D0782B2A
:1005A00067D10C9B01931CAB009302971DAB884A4B
:1005B00004981BA90AF07CFA10F00704064605D03F
:1005C000062C2BD1013500231B950C93179B002B78
:1005D00040F076850C9BE3B152460BF1004343ECAF
:1005E000102B21B0BDE8F08F2B2B06D02D2B13D074
:1005F000202BCAD101321B92BFE700230C93531C5E
:100600001B935378002BC2D1179B1B96002B40F0F5
:10061000558552465B46E2E70123EFE71C9A3AB163
:1006200035211EA810F0C7F91C9904980FF0FFFEA1
:10063000013C042C06D8DFE804F00A0314170A0072
:10064000DDE91EAB3107C1D54BF0004BBEE7DDE95C
:100650001EA31D9A23F4801302F2334243EA025B85
:10066000F0E7DFF870B1EDE76FF0004B4FF0FF3AC5
:10067000E8E71B9B5A1C1B925B78302BF9D0002BB0
:10068000A4D001234FF0000906931B9B0993CDF8DA
:100690001C90C8460A221B980578A5F13003D9B2F0
:1006A000092924D92246059910F0BCFA78B3002014
:1006B0002B46444605900246652B01D0452B12D1AE
:1006C0001CB9069B03439FD000241B9E731C1B93E5
:1006D00073782B2B72D02D2B75D00027A3F130010E
:1006E00009297DD91B9600259AE00023CAE7B8F1B5
:1006F000080FD8BF079900F10100DABF02FB0133F0
:10070000079302FB093908F101081B90C3E71B9B03
:100710001A191B921B5DB8F1000F36D005904446A4
:10072000A3F13002092A12D90122C5E71B9B5A1CEA
:100730001B925B780130302BF8D0A3F13102082AEC
:1007400000F2C3841B9A0590002009920446303BB6
:1007500000F1010213D005991144059122460519B3
:100760000A21AA4213D12218082A04F101040444E0
:100770001ADC07990A2202FB0133079300221B9B14
:10078000591C1B915B781046CAE74046D3E7082AFC
:1007900004DC079F4F4307970132E2E7571C102FF5
:1007A000D8BF01FB09F9F7E7102CDCBF0A2202FBD6
:1007B0000939E3E700230593012282E70027B31CF0
:1007C0001B93B3788AE70127F9E700BF483401009B
:1007D000C03301000000F07F1B9B591C1B915B780C
:1007E000302BF9D0A3F1310108293FF67CAFA3F1FA
:1007F000300C1B9B08934FF00A0E1B9B591C1B913E
:100800005B78A3F13005092D2ED9089D491B0829D5
:1008100044F61F6502DC6545A8BF654607B16D4219
:10082000002C4BD1069901437FF4D0AE002A7FF40F
:10083000EBAE4E2B22D01CDC492B7FF4E5AE9A495F
:100840001BA80FF0C9FC00283FF4DEAE1B9B9749A4
:10085000013B1BA81B930FF0BFFC10B91B9B01337E
:100860001B93DFF860B2B1E60EFB0C3CACF1300C30
:10087000C3E7692BE3D06E2B7FF4C6AE8C491BA86F
:100880000FF0AAFC00283FF4BFAE1B9B1B78282B5F
:100890000ED11EAA87491BA80FF0B2FC052807D16C
:1008A0001F9BDDF878A043F0FF4B4BF4E00B8DE687
:1008B000814801F0D5F95BEC10AB87E6059B079802
:1008C000EB1AB8F1000F08BFA046102C089326467B
:1008D000A8BF10260AF0A8FF092C82468B4613DD1C
:1008E000764B03EBC60353E912230BF017F882464D
:1008F00048468B460AF098FF02460B46504659463A
:100900000AF056FE82468B460F2C38DC089B002BE3
:100910003FF45CAE24DD162B0BDC684C04EBC30407
:10092000D4E9000152465B460AF0F8FF82468B4646
:100930004CE6089AC4F12503934220DB5F4DC4F1D5
:100940000F0405EBC40152465B46D1E900010AF0F1
:10095000E5FF089B1C1B05EBC405D5E90023E3E775
:10096000089B16330BDB059B544A5D1B02EBC50548
:10097000D5E90023504659460BF0FAF8D6E7089B14
:10098000A61B1E44002E6EDD16F00F030AD04B4945
:1009900001EBC30152465B46D1E900010AF0BEFFFC
:1009A00082468B4636F00F064ED0B6F59A7F23DD91
:1009B0000024059409940794049ADFF808B12223CF
:1009C00013604FF0000A099B002B3FF4FFAD1C9908
:1009D00004980FF02CFD079904980FF028FDDDE92D
:1009E00004010FF024FD099904980FF020FD214621
:1009F00004980FF01CFDE9E50023DFF8C4903611E0
:100A0000504659461F46012E21DC0BB182468B46CB
:100A10002B4BABF1547B03EBC70752465B46D7E940
:100A200000010AF07BFF274B0A460B4026498B4208
:100A30008246BDD8A1F580118B4286BFDFF88CB00D
:100A40004FF0FF3A02F1547B0023069379E0F2075E
:100A500006D509EBC703D3E900230AF05FFF0123A2
:100A600001377610CFE7EFD0764216F00F020AD0AA
:100A7000124B03EBC20350465946D3E900230BF057
:100A800077F882468B463611DED01F2E20DD0024FB
:100A9000059409940794049A22234FF0000A4FF01A
:100AA000000B13608FE700BFB2340100EA3501008C
:100AB000BA340100D43301009B340100C80E010098
:100AC000A00E01000000F07F0000A07CFFFFEF7F80
:100AD00016F0100318BF6A23AE4F069350465946CE
:100AE0000023F20704D5D7E900230AF017FF0123FA
:100AF000761007F10807F4D10BB182468B46069BAE
:100B0000BBB1CBF30A53C3F16B03002B594610DD85
:100B10001F2B40F32981342BDEBF203B4FF0FF32E7
:100B200002FA03F34FF0000ACCBF4FF05C7B03EAFC
:100B3000010B00220023504659460BF057F90028BC
:100B4000A5D1079B009342462346099904980FF0CC
:100B5000C0FC099000283FF42BAF059B5D1B089B50
:100B6000002BB4BF2B4600230E93089B002423EADE
:100B7000E37316930594099B049859680FF023FCBE
:100B8000079000283FF418AF099B1A69023203F15D
:100B90000C0192000C300FF091F81EAA1DA94BEC2D
:100BA00010AB0498CDE90AAB0FF084FE1C9000282E
:100BB0003FF402AF012104980FF019FD05900346A0
:100BC00000283FF4F9AE1D9E1E9A002EABBF0E9B6F
:100BD000169B169D0E9FACBFF7189D1B069BF61A21
:100BE00016446D4B013E9E42C2F1360280F2C38034
:100BF0009B1B1F2BC2BFC6F17F4606F57F0606F57D
:100C00007B464FF00108C8BFE236A2EB0302DABF11
:100C100008FA03F8002608FA06F607EB0209069B15
:100C20004F4515441D443B46A8BF4B46AB42A8BFA9
:100C30002B46002BC2BFA9EB0309ED1AFF1A0E9B2E
:100C4000002B17DD1A46DDE904010AF0A5F905902D
:100C500000283FF4B1AE01461C9A04980FF0D0FC76
:100C60000D9000283FF4A8AE1C9904980FF0DFFB0C
:100C70000D9B1C93B9F1000F00F38180089B002BA2
:100C800008DD169A079904980AF086F9079000285B
:100C90003FF492AE002D08DD2A46079904980FF024
:100CA0003FFD079000283FF487AE002F08DD3A464D
:100CB000DDE904010FF034FD059000283FF47CAE1F
:100CC000079A1C9904980FF098FD044600283FF4F9
:100CD00073AEC3680D930023C36005990FF073FDD5
:100CE00000285FDA0D9B53EA0A0340F08180CBF3C2
:100CF0001303002B7CD12BF000431B0D1B05B3F11C
:100D0000D66F75D9636913B92369012B70DD21464C
:100D1000012204980FF004FD059904460FF053FDDD
:100D2000002865DD06991D4A5B4600297FD002EA4E
:100D30000B01B1F1D66F7ADCB1F15C7F7FF7ABAE1E
:100D4000174A0023CDE914325046DDE914235946F1
:100D50000AF0E4FD0B46034304BF049A22238246B3
:100D60008B4608BF136032E64FF0FF3202FA03F3FE
:100D700003EA0A0ADDE600264FF001084DE74A467D
:100D80001C9904980FF0CCFC1C9000287FF476AFDF
:100D900012E600BF780E010002FCFFFF0000F07FAA
:100DA000000050395D4660D10D9ACBF3130342B376
:100DB000B74A934228D1069B5046EBB1B54A2A4028
:100DC000B2F1D46F4FF0FF3119D8120DC2F16B039D
:100DD00001FA03F3984217D1AF4B9D4202D1013083
:100DE0003FF4EAADAB4B2B4003F5801B4FF0000AFC
:100DF000069B002BA4D1EAE54FF0FF33EAE70B4650
:100E0000E8E753EA0A038DD0DEB12E42F0D00D9B05
:100E1000069A50465946BBB10FF09BF802460B4666
:100E2000DDE90A010AF0C4FB82468B46E0E7134085
:100E3000A3F580136FEA135B6FEA0B5B4FF0FF3A89
:100E4000D6E718EA0A0FE1E70FF083F802460B46EF
:100E5000DDE90A010AF0AAFB0022002382468B4644
:100E60000AF0C4FF0028C3D015E6059920460FF00C
:100E70006FFD57EC106B00224FF0804310EE100A0C
:100E800039460AF0C7FF002873D00D9B002B46D0CF
:100E9000DFF808924FF00008804F00267D4B2B4072
:100EA0000F930F9A7E4B9A4240F0AB80DDE90A2304
:100EB000A5F1547B4BEC10ABCDE914230AF0BAF842
:100EC000404653EC102B49460AF028FD52465B463B
:100ED0000AF06EFB0B466F49724A194091428246F6
:100EE0005BD90B9B02F15472934203D10A9B0133ED
:100EF0003FF462ADDFF8A0B14FF0FF3A1C990498BF
:100F00000FF095FA079904980FF091FADDE90401C2
:100F10000FF08DFA214604980FF089FA2BE6BAF10A
:100F2000000F18D1CBF31303DBB900225B4B304623
:100F300039460AF065FFC8B93046394600225A4B97
:100F40000AF0ECFC06460F4607F100431896199389
:100F5000DDE91889A2E7BAF1010F02D1002D3FF4B3
:100F60009AAD4FF00008DFF8449195E700264E4F08
:100F7000EAE74D4B3046394600220AF0CFFC0D9B84
:100F800006460F4633B901F1004310901193DDE995
:100F9000108983E7CDE91067F9E703F1547B069BDD
:100FA000002BABD12BF000431B0D0F9A1B059A426F
:100FB000A4D1304639460AF0F9FF0AF081FC024616
:100FC0000B46304639460AF0F1FACBF313030D9A7B
:100FD00043EA0A03134306460F4669D026A3D3E922
:100FE00000230AF00DFF00287FF4F1AC24A3D3E91D
:100FF0000023304639460AF021FF00283FF47EAF37
:10100000E5E4069B1BB30F9BB3F1D46F1FD81EA35F
:10101000D3E90023304639460AF0FCFE90B1394648
:1010200030460AF053FF002808BF01200AF0FCFBFD
:101030000D9B06460F46DBB901F100431290139356
:10104000DDE912890F9A09F1D663A3EB02099DED40
:101050000A0B09F0EFFF404653EC102B49460AF00B
:101060005DFCDDE90A230AF0A3FA82468B4696E787
:10107000CDE91267E4E700BF9535A094FFFFDF3F9D
:1010800035E5AF350000E03F0000C0FFFFFFDF4166
:10109000FFFF0F000000F07FFFFFEF7F0000F03F39
:1010A0000000E07FFFFF9F7C0000E03F0000F0BFFA
:1010B0000BA3D3E900230AF0A3FE9EE700230C93C1
:1010C000179A1B9B1360FFF785BA652B3FF472AB31
:1010D000452B3FF46FAB0122FFF7A4BBAFF30080B9
:1010E0009535A094FFFFCF3F2DE9F04F55EC104B05
:1010F00099B0476A089183460D921493229ECDE9D8
:10110000004547B9102008F0CBFAC0E90177CBF8C9
:1011100024000760C760DBF82430196859B15A68A9
:101120004A60012393408B6058460FF080F9DBF84A
:10113000243000221A602B1EB9BF23F00043019314
:1011400000233360019CB24BBCBF01223260A34339
:101150001AD1149A42F20F731360009AC4F3130366
:10116000134300F05285239B53B9AA4B23E0AA4BAB
:1011700003930833239A1360039819B0BDE8F08FE6
:10118000A44B03930333F5E79DED007B002200237E
:1011900051EC170B8DED0E7B0AF028FE074660B16F
:1011A000149A01231360239B002B00F02B859B4B8B
:1011B000239A1360013B0393DEE716AA17A99DED5E
:1011C0000E0B58460FF076FBC4F30A568046002EED
:1011D0007FD00F9B1597C3F31303DDE90E4543F052
:1011E0007F5545F44015A6F2FF3600228C4B204671
:1011F00029460AF0DBF980A3D3E900230AF08EFB2D
:101200007FA3D3E900230AF0D3F9044630460D4604
:101210000AF01AFB7CA3D3E900230AF07FFB024605
:101220000B46204629460AF0C3F904460D460AF04B
:1012300025FE002282460023204629460AF0E0FDD2
:1012400048B150460AF000FB22462B460AF0CEFD7C
:1012500008B90AF1FF3ABAF1160F59D8714B03EBEE
:10126000CA03D3E90023DDE90E010AF0C9FD002815
:1012700050D00AF1FF3A00231193169B9E1B731E58
:10128000079345BFC6F101030693002300234CBF1B
:1012900007930693BAF1000F3EDB079BCDF840A001
:1012A0005344079300230993089B092B00F28F8076
:1012B000052BC4BF043B0893089BA3F10203CCBFDA
:1012C00000240124032B00F28D80DFE803F02F3C83
:1012D0003A7EDDE916631E4406F23240202811DD15
:1012E000C0F14000009B844006F2124023FA00F057
:1012F00020430AF099FA01230446A1F1F875013E52
:10130000159372E7009BC0F1200003FA00F0F0E7AC
:101310000123B1E71190B0E7069BA3EB0A03069304
:10132000CAF10003099300231093BDE700230C9337
:101330000D9B002B59DC0123049399461A460D920C
:101340000CE00123F3E700230C930D9B534403F1BE
:10135000010904934B46012BB8BF0123DBF824504D
:1013600000226A60042202F11400984269685DD983
:1013700058460FF028F8DBF8243028601B680393E8
:10138000B9F10E0F00F2D780002C00F0D480BAF132
:10139000000F69DD234A0AF00F0302EBC30393ED4C
:1013A000007B4FEA2A14E2068DED0A7B5AD51E4BCC
:1013B000DDE90E01D3E908230AF0DAFBCDE90001EB
:1013C00004F00F040326184D41E00123BCE701247B
:1013D000002308930C944FF0FF33049399460022A6
:1013E0001223ACE701230C93F5E70D9B0493994678
:1013F000B4E700BFAFF3008061436F63A787D23FBC
:10140000B3C8608B288AC63FFB799F501344D33FF3
:101410000000F07FF0350100E7350100BE34010027
:101420000000F83FC80E0100A00E01000131696004
:10143000520098E7E30708D5DDE90A01D5E9002362
:101440000AF06CFACDE90A01013664100835002C67
:10145000F0D1DDE90A23DDE900010AF089FBCDE9DD
:1014600000011AE00226AEE700F09F80CAF10004F6
:101470009F4BA04D04F00F0203EBC203D3E90023FE
:10148000DDE90E010AF04AFACDE90001241100233A
:101490000226002C7ED1002BE1D1119B002B00F005
:1014A0008680DDE900450022934B204629460AF05C
:1014B000A7FC00287BD0B9F1000F78D0049B002B4B
:1014C00035DD0AF1FF330A93204600228B4B294673
:1014D0000AF024FACDE90001049C013630460AF0F6
:1014E000B3F9DDE900230AF019FA0022844B0AF06F
:1014F0005FF80646A1F15077002C5CD10022814BA9
:10150000DDE900010AF052F832463B46CDE9000120
:101510000AF094FC002840F08C82324607F1004328
:10152000DDE900010AF06CFC002840F08082DDE972
:101530000E34CDE90034179B002BC0F24F81BAF175
:101540000E0F00F34B816A4B03EBCA0393ED007B54
:101550000D9B002B8DED047B80F2D880B9F1000F3C
:1015600000F3D48040F062820022664B51EC170BEE
:101570000AF0D4F9DDE900230AF056FC4C464E4649
:10158000002840F03B82039D312305F8013B0AF11E
:10159000010A37E2E70705D5D5E900230AF0BEF9CD
:1015A000013601236410083573E7022675E7CDF88C
:1015B00028A04C4692E74E4B03EBC40353E90201CB
:1015C000039B1C440C9B002B46D002460B4600207C
:1015D0004D490AF0CDFA32463B4609F0E7FF039D3C
:1015E00006460F46DDE900010AF048FC12900AF0B9
:1015F0002BF902460B46DDE9000109F0D7FF129BEB
:10160000303305F8013B32463B46CDE900010AF094
:10161000F7FB002860D1DDE900230020364909F0FE
:10162000C5FF32463B460AF0EBFB002840F0B48091
:10163000A5423FF47CAF0022304B304639460AF0D9
:101640006DF9002206460F462C4BDDE900010AF039
:1016500065F9CDE90001C5E732463B460AF05EF97F
:10166000CDE91201039E2546DDE900010AF006FCE2
:1016700007460AF0E9F8303702460B46DDE900017B
:1016800009F094FF06F8017BA642CDE900014FF076
:10169000000226D11C4BDDE9120109F089FF024648
:1016A0000B46DDE900010AF0C9FB002874D1DDE931
:1016B00012230020144909F079FF02460B46DDE9A8
:1016C00000010AF09DFB00283FF431AF15F8013C02
:1016D000302B05F1FF3202D0DDF828A04AE0154694
:1016E000F4E7064B0AF01AF9CDE90001BCE700BFA8
:1016F000C80E0100A00E01000000F03F00002440D1
:1017000000001C40000014400000E03FDDE90067DD
:10171000039DDDE90423304639460AF029FA0AF030
:10172000ADFB04460AF090F8DDE904230AF0F6F870
:1017300002460B463046394604F1300609F036FFC2
:1017400005F8016B039EAE1BB14502460B4638D12E
:1017500009F02EFFDDE9042306460F460AF06EFB72
:10176000C0B9DDE90423304639460AF03FFB08B131
:10177000E1070FD4414658460EF059FE0023149A53
:101780002B700AF101031360239B002B3FF4F4AC90
:101790001D60F1E4CDF828A015F8012C392A05F1D7
:1017A000FF3308D1039A9A4209D10A9A0399013268
:1017B0000A9230220A701A7801321A708CE71D469C
:1017C000EAE700229D4B0AF0A9F800220023064612
:1017D0000F460AF00BFB00289BD0CBE70C9A002A9F
:1017E00000F0CB80089A012A00F3AE80159A002AF7
:1017F00000F0A68003F23343099C069D069A1A4422
:101800000692079A01211A44584607920EF0EFFEFD
:101810000646002D0CDD079B002B09DDAB42069A26
:10182000A8BF2B46D21A0692079AED1AD31A07932D
:10183000099BF3B10C9B002B00F0A380002C10DD62
:1018400031462246584609F0A7FB42460146064665
:1018500058460EF0D5FE4146074658460EF0E7FDC5
:10186000B846099B1A1B04D04146584609F094FB20
:101870008046012158460EF0BAFE109B002B04460C
:1018800040F381801A460146584609F085FB089BC3
:10189000012B04467ADD0027236904EB83031869D2
:1018A0000EF055FEC0F12000079B184410F01F00F9
:1018B00000F08B80C0F12003042B40F38480C0F142
:1018C0001C00069B03440693079B034405440793AF
:1018D000069B002B05DD41461A4658460EF020FFB8
:1018E0008046079B002B05DD21461A4658460EF020
:1018F00017FF0446119B002B69D0214640460EF08D
:1019000062FF002863DA002341460A2258460EF09F
:10191000A5FD0C9B0AF1FF3A8046002B00F07C816C
:10192000002331460A2258460EF098FD049B002BF6
:10193000064600F38B80089B022B40F387804EE025
:10194000169BC3F1360357E7099B09F1FF34A34205
:10195000BFBF099B0994E21A109BBBBF9B18109351
:101960001C1B0024B9F1000FB5BF069B069DA3EB1D
:1019700009054B46B8BF002340E7099C069D0C9E15
:1019800047E7099A70E7089B012B18DC009BB3B965
:10199000019BC3F31303A3B9019B23F000473F0D41
:1019A0003F0537B1069B01330693079B013307932D
:1019B0000127109B002B7FF46FAF012074E70027F5
:1019C000F7E7009FF5E783D018461C3079E7B9F1B7
:1019D000000F35DC089B022B32DDCDF81090049B04
:1019E00063B92146052258460EF038FD01460446EB
:1019F00040460EF0E8FE00283FF7C5AD0D9B039D65
:101A00006FEA030A0027214658460EF010FD002E0B
:101A10003FF4B0AE2FB1B74203D0394658460EF06E
:101A200006FD314658460EF002FDA3E60024264688
:101A3000E4E7DDF828A02646A5E500BF0000244025
:101A40000C9BCDF81090002B00F0ED80002D05DDF3
:101A500031462A4658460EF063FE0646002F56D001
:101A6000716858460EF0AFFC3269023205469200AA
:101A700006F10C010C300EF021F9012229465846DE
:101A80000EF04EFE039B03F10109DDE9032313442D
:101A90000993009B03F0010337460793064609F1BB
:101AA000FF332146404600930EF078FA0346303368
:101AB0000490394640460A930EF085FE3246069061
:101AC000214658460EF099FEC2680A9B054602BBA5
:101AD000014640460EF077FE0A9B024629465846CC
:101AE0000C920A930EF0A3FC089B0C9A43EA0201A5
:101AF000079B0B434D460A9B0DD1392B27D0069AE5
:101B0000002A01DD049B3133009A13707BE73046D5
:101B1000B8E70122E2E70699002904DB08980143AF
:101B2000079801431ED1002AEEDD414601225846A6
:101B300006930EF0F5FD214680460EF044FE002887
:101B4000069B02DCE0D1DA07DED5392BDAD1009A28
:101B50003923137015F8013C392B05F1FF3247D0BA
:101B60000133D2E7002A03DD392BF0D00133CBE774
:101B7000099A09F8013C914521D0414600230A22E7
:101B800058460EF06BFCB74280464FF000034FF012
:101B90000A023946584606D10EF060FC0746064652
:101BA00009F101097BE70EF059FC31460746002395
:101BB0000A2258460EF052FC0646F1E7002741463D
:101BC0000122584600930EF0ABFD214680460EF0F0
:101BD000FAFD0028BEDC02D1009BDB07BAD415F861
:101BE000013C302B05F1FF327FF40DAF1546F6E7CF
:101BF000039B934204D10AF1010A3123039A84E73B
:101C00001546A7E7134BFFF7D6BA239B002B7FF4AB
:101C1000AEAA114BFFF7CFBA049B002B03DC089B45
:101C2000022B3FF7DCAE039D214640460EF0B6F98D
:101C300000F1300305F8013B039A0499AA1A914276
:101C4000BCDD414600230A2258460EF007FC8046C0
:101C5000EAE700BFBD340100E7350100FFFFFFFFE9
:101C60009FED010B704700BF000000000000F87FEF
:101C700080B586B000AFF8607B600B46FB72134600
:101C8000BB72FB7A5A00BB7A13437B6107F11303E3
:101C900018460CF069FBFA687B691B01134403F1D9
:101CA0002802537943F040035371FB685B6823F4C7
:101CB000FF7323F00103FA7A520102F4F0721A431F
:101CC000BB7A1B0103F010031A43F9687B691B01FF
:101CD0000B4428335B79C3F30013DBB2DB001343FF
:101CE00004331A467B6813603B6A1A04204B134086
:101CF000F9687A6912010A4428325279C2F3C002A3
:101D0000D2B292011A43FB685B6823F4FF7323F09D
:101D10000103F97A490101F4F0711943BB7A1B01FF
:101D200003F010031943F8687B691B01034428334F
:101D30005B79C3F30013DBB2DB000B43194642F0BF
:101D400088030B60FB7C18460CF02FFBFB689B683C
:101D500093F89430DAB2FB689B6822F02002D2B28A
:101D600083F89420002318461837BD4680BD00BF75
:101D70000000FF0380B586B000AF0346B9607A600B
:101D8000FB732E4B3B61FB7B002B02D1FB7B002BBB
:101D900001D006234DE0FA7B13465B0113449B0000
:101DA000274A13447B617B69FA7B83F88220FB7BA3
:101DB0009B0007F11802134453F8083C1A467B694C
:101DC0009A60FB7B9B011F4A1A447B69DA617B693D
:101DD0009B68FF2283F8802000220121786900F0AF
:101DE00035F8FB7B5B02184A1A447B695A607B69B1
:101DF0005B681A0A7B699B68D2B283F89C207B6976
:101E00005B681A0C7B699B68D2B283F8B0207B694F
:101E10005B681A0E7B699B68D2B283F8B42078693C
:101E20000AF033F97B687A691A607B69BA681A60CC
:101E3000002318461837BD4680BD00BF002007406C
:101E400000060020840600200004002080B58AB02F
:101E500000AFF8600B467A60FB72FB683B620123BF
:101E600087F82730FB68002B01D103233EE1FB7A82
:101E7000122B00F2288101A252F823F0C91E0000A3
:101E80002F1F0000731F00008B1F0000AB1F0000FE
:101E9000CB1F0000EB1F0000032000004B200000C0
:101EA000C7200000C7200000C7200000C720000096
:101EB000C720000069200000AF200000C7200000FC
:101EC000C7200000C72000003B6A9B68002283F8FF
:101ED00000213B6A9B681B7FDBB203F00403002BED
:101EE00009D03B6A9B681B7FDAB23B6A9B6862F051
:101EF0007F02D2B21A773B6A9B6893F80831DAB254
:101F00003B6A9B6842F01002D2B283F808213B6A18
:101F10009B6893F89430DAB23B6A9B6842F0010206
:101F2000D2B283F89420002387F82730DCE03B6AA4
:101F30009B681B7FDBB203F00403002B09D03B6AD4
:101F40009B681B7FDAB23B6A9B6802F07F02D2B2C9
:101F50001A773B6A9B6893F80831DAB23B6A9B6850
:101F600022F01002D2B283F80821002387F827302C
:101F7000BAE07B68002B00F0A8807968386A0AF024
:101F800030F9034687F827309FE07B68002B00F08C
:101F90009E807B68FB61FB691B781946386A0AF0F2
:101FA000B6F9034687F8273091E07B68002B00F0F4
:101FB00090807B68FB61FB691B781946386A0AF0E0
:101FC000D4F9034687F8273083E07B68002B00F0C4
:101FD00082807B68FB61FB691B781946386A0AF0CE
:101FE00020FA034687F8273075E07B68002B74D011
:101FF0007B68BB61BB6901221A80002387F8273008
:102000006BE07B68002B6AD07B687B617B691B7807
:1020100003F00F03022B62D87B691B785B0003F08F
:102020001E037A691278D209D2B213433A6A1B01AD
:10203000134428335B79C3F38003DBB29AB27B6924
:102040005A80002387F8273049E07B68002B48D06E
:102050007B68FB613B6A9B68FA69127883F8982079
:10206000002387F827303CE0002387F8263013E070
:1020700097F8263063F07F03DBB21946386A0AF01E
:1020800046F997F826301946386A0AF040F997F869
:102090002630013387F8263097F82630022BE7D90F
:1020A000386A09F0F2FF002387F827301CE07B68CC
:1020B000002B18D07B68FB61FB6900221A7000239B
:1020C00087F827300FE000BF0EE000BF0CE000BF34
:1020D0000AE000BF08E000BF06E000BF04E000BF68
:1020E00002E000BF00E000BF97F82730184628370D
:1020F000BD4680BD90B5A7B002AFF860B9607A6008
:102100000023FB670023BB67052387F88F30BB687C
:102110005B68B3F1FF3F02D07B68002B02D197F8D8
:102120008F309FE17B68C7F88830D7F888309B688C
:10213000C7F8843007F177031A460621F86800F0E3
:1021400053FABB681B7A002B00F01781BB685B68F1
:10215000082B03D1BB681B68002B02D197F88F3086
:1021600080E1BB681B68C7F88030D7F880305A8898
:10217000D7F884305A80D7F880309A88D7F88430DE
:102180009A80D7F88030DA88D7F88430DA80D7F8A8
:1021900080305A78D7F884305A70D7F880301A785F
:1021A000D7F884301A70D7F884301B7803F06003B6
:1021B000002B23D1D7F884305B780C2B00F2CB8036
:1021C000D7F884305B781A46A84B53F82230002B9E
:1021D00000F0C180D7F884305B781A46A34B53F8DF
:1021E000224007F1780307F17C02D7F88410D7F872
:1021F0008800A047034687F88F30ACE0D7F88430DA
:10220000DB88002B64D0D7F884301B785BB2002BBE
:102210005EDBD7F88430DB88002B21D0D7F8843000
:102220001B7803F02003002B1AD00023BB66012388
:1022300087F87030D7F884307B66D7F88430DB8835
:10224000FB6607F164031A460121F86801F094F96E
:10225000034687F88F30FB6EBB67BB6EFB6725E0DC
:10226000D7F88430DB88002B20D0D7F884301B7857
:1022700003F04003002B19D00023BB65012387F82E
:102280006030D7F884307B65D7F88430DB88FB6515
:1022900007F154031A461321F8680BF06EFE03464B
:1022A00087F88F30FB6DBB67BB6DFB6797F88F308E
:1022B000002B50D1FA6FD7F88430DB880021F86802
:1022C0000BF0E2FB034687F88F3097F88F30C9E0B8
:1022D000D7F884301B7803F02003002B1AD000239A
:1022E000BB64012387F85030D7F884307B64D7F87B
:1022F0008430DB88FB6407F144031A460121F86847
:1023000001F03AF9034687F88F30FB6CBB67BB6C72
:10231000FB6720E0D7F884301B7803F04003002BE4
:1023200019D00023BB63012387F84030D7F88430ED
:102330007B63D7F88430DB88FB6307F134031A46EC
:102340001321F8680BF019FE034687F88F30FB6BFA
:10235000BB67BB6BFB6797F88F2007F1780301938E
:1023600007F17C0300930023D7F88410F8680BF082
:1023700085F8034687F88F3072E097F87730032BA3
:1023800013D1D7F884305B781A46384B53F8224083
:1023900007F1780307F17C02D7F88410D7F888009A
:1023A000A047034687F88F305AE0BB685B68002B74
:1023B00056D0D7F88430DB88002B51D0D7F8843042
:1023C0001B785BB2002B4BDBD7F884301B7803F013
:1023D0002003002B16D0BB681B68BB62002387F864
:1023E0003030D7F884307B62BB685B68FB6207F1F2
:1023F00024031A460121F86801F0BEF8034687F865
:102400008F301CE0D7F884301B7803F04003002B9A
:1024100015D0BB681B68BB61002387F82030D7F854
:1024200084307B61BB685B68FB6107F114031A466B
:102430001321F8680BF0A1FD034687F88F3097F859
:102440008F2007F17803019307F17C0300930123A8
:10245000D7F88410F8680BF011F8034687F88F302E
:1024600097F88F3018469437BD4690BD900F010005
:1024700080B588B000AF786039601B4BFB603B686B
:102480003B6101233B770023FB7600237B7780238E
:10249000BB7640233B8307F10C0207F11803194672
:1024A00078680BF007FB0346FB77FB7F002B01D01E
:1024B000FB7F15E00023BB7607F10C0207F1180340
:1024C000194678680BF0F6FA0346FB77FB7F002B82
:1024D00005D0802178680BF04CFBFB7F00E00023E7
:1024E00018462037BD4680BDF520000080B584B079
:1024F00000AF03463960FB7107F10B0318460BF080
:1025000033FF0023FB601CE0284AFB68582101FBD5
:1025100003F313441B68002B10D0244AFB68582196
:1025200001FB03F3134455331B78FA799A4205D122
:10253000FB7A18460BF039FF012333E0FB680133C7
:10254000FB60FB68002BDFD00023FB6022E0174A12
:10255000FB68582101FB03F313441B68002B16D1C1
:10256000124AFB68582101FB03F313445533FA79EF
:102570001A70FB68582202FB03F30C4A1A443B68AA
:102580001A60FB7A18460BF010FF00230AE0FB6884
:102590000133FB60FB68002BD9D0FB7A18460BF0A7
:1025A00004FF022318461037BD4680BDC406002034
:1025B00080B485B000AF03463960FB710623FB731E
:1025C000FB79012B05D83B68064A1A600023FB7390
:1025D00000E000BFFB7B18461437BD465DF8047B66
:1025E000704700BFC40F010080B586B000AFF8602F
:1025F0000B467A60FB720123FB757B68002B01D1CF
:10260000042353E0FB7A023B062B4DD801A252F87B
:1026100023F000BF3126000041260000792600008B
:10262000892600005126000065260000992600003A
:102630007A680F21F8680BF01BF80346FB7534E04D
:102640007A681021F8680BF013F80346FB752CE04C
:102650007B683B610023FB75FB6893F856203B6960
:102660001A7022E07B683B610023FB75FB6893F8DE
:1026700054203B691A7018E07A680621F8680AF05D
:10268000F7FF0346FB7510E07A680721F8680AF047
:10269000EFFF0346FB7508E07A680921F8680AF045
:1026A000E7FF0346FB7500E000BFFB7D18461837C7
:1026B000BD4680BD80B586B000AFF8600B467A603D
:1026C000FB720123FB75FB7A033B0B2B72D801A233
:1026D00052F823F005270000B5270000B5270000B9
:1026E000152700002B270000B5270000B5270000A4
:1026F00095270000A527000075270000B5270000DA
:10270000852700007A681121F8680AF0B1FF0346B6
:10271000FB7554E07B68002B4ED00023FB757B6873
:102720001A78FB6883F8562046E0FB6893F8563029
:10273000032B15D07B68002B40D00023FB757B68F2
:102740001A78FB6883F85420FB68032283F856202C
:10275000FB6854331A461421F8680AF089FF2DE00B
:10276000FB6854331A460821F8680AF081FF0346D3
:10277000FB7523E07A680A21F8680AF079FF0346BE
:10278000FB751CE07A680B21F8680AF071FF0346BC
:10279000FB7514E07A680C21F8680AF069FF0346BB
:1027A000FB750CE07A680D21F8680AF061FF0346BA
:1027B000FB7504E000BF02E000BF00E000BFFB7D4E
:1027C00018461837BD4680BD80B485B000AF78602C
:1027D0000023FB6017E01149FA6813461B011344FC
:1027E0009B000B441B68002B0AD1FA6813461B019F
:1027F00013449B00094A1A447B681A60002306E0D0
:10280000FB680133FB60FB68002BE4D00223184611
:102810001437BD465DF8047B704700BF1C070020DD
:1028200080B596B000AF786000237B65012387F800
:1028300053307B68002B02D197F85330BAE17B68A4
:1028400093F84030002B08D07B6893F840207B68D9
:102850005B689B685B799A4202D997F85330A9E18B
:102860007B685B689B681A687B6893F8403003F16B
:102870000053013BDB0013447B630023FB644DE00A
:102880007B6B5968FA6C13465B0013449B000B4446
:102890001B78022B3FD10023BB6422E07B6B59687D
:1028A000FA6C13465B0013449B000B445A68BB6CE4
:1028B0001B0113441A787B6893F842309A420DD179
:1028C0007B6B5968FA6C13465B0013449B000B4406
:1028D0005A68BB6C1B0113447B650FE0BB6C013372
:1028E000BB647B6B5968FA6C13465B0013449B0016
:1028F0000B441B7A1A46BB6C9342CFD37B6B59684F
:10290000FA6C13465B0013449B000B44DA787B6837
:1029100083F8412008E0FB6C0133FB647B6B1B7880
:102920001A46FB6C9342ABD37B6D002B02D197F818
:1029300053303FE17B687A6D9A6000237B6461E0ED
:10294000002387F830307B6D99687A6C13465B0002
:1029500013445B000B441B7987F831307B6D996819
:102960007A6C13465B0013445B000B441B7887F8BA
:102970002E307B6D99687A6C13465B0013445B00C4
:102980000B445B88BB857B6D99687A6C13465B0052
:1029900013445B000B445B7887F82F3097F82E3098
:1029A000DB09DBB2012B1CD197F82F30032B18D198
:1029B00097F82E3003F00F03DAB27B6883F83D20DE
:1029C0007B68002283F83E207B684FF0FF325A6319
:1029D0007B68002283F83C207B6800229A63774B57
:1029E0003B627B687B627B681B6807F1200207F112
:1029F0002C0118460BF05EF8034687F853307B6CC9
:102A000001337B647B6D1B791A467B6C934297D3B1
:102A100000233B6442E07B6B59683A6C13465B00D1
:102A200013449B000B441B780A2B34D10023FB6317
:102A300023E07B6B59683A6C13465B0013449B00A0
:102A40000B445A68FB6B1B0113441A787B6893F89C
:102A500042309A420ED17B6B59683A6C13465B0048
:102A600013449B000B445A68FB6B1B0113447B65AA
:102A700000BF19E0FB6B0133FB637B6B59683A6C59
:102A800013465B0013449B000B441B7A1A46FB6BF6
:102A90009342CED308E03B6C01333B647B6B1B78E5
:102AA0001A463B6C9342B6D37B687A6DDA6000239A
:102AB000BB6377E000233B777B6D9968BA6B134665
:102AC0005B0013445B000B441B797B777B6D99683B
:102AD000BA6B13465B0013445B000B441B78BB7658
:102AE0007B6D9968BA6B13465B0013445B000B4423
:102AF0005B883B837B6D9968BA6B13465B0013441C
:102B00005B000B445B78FB76BB7EDB09DBB2012B01
:102B100018D1FB7E022B15D1BB7E03F00F03DAB276
:102B20007B685A777B6800229A777B684FF0FF3288
:102B30005A617B6800221A777B6800229A61204BD9
:102B4000FB601EE0BB7E5BB2002B1ADBFB7E022B20
:102B500017D1BB7E03F00F03DAB27B6883F82D2018
:102B60007B68002283F82E207B684FF0FF325A6288
:102B70007B68002283F82C207B6800229A62114B2C
:102B8000FB607B683B617B681B6807F10C0207F107
:102B9000180118460AF08EFF034687F85330BB6BC6
:102BA0000133BB637B6D1B791A46BB6B934281D3A8
:102BB00097F8533018465837BD4680BDB5DC000045
:102BC00009DD00005BDD000080B59AB000AFF86061
:102BD000B9607A60012387F867307B68002B02D0E8
:102BE000FB68002B01D1032309E3FB683B65BB684D
:102BF000013B052B00F2EE8201A252F823F000BF48
:102C0000F92F0000192C0000232C00007D2C00005F
:102C1000F12C0000D12D00003B6D002283F84020F4
:102C2000EBE27B68FB643B6D5B68002B00F0D482B9
:102C3000FB6C1A783B6D93F840309A4200F0CE82DC
:102C4000386D0BF0B4F8034687F86730FB6C1A78E0
:102C50003B6D83F840203B6D002283F84220386DA5
:102C6000FFF7DEFD034687F8673097F86730002BE3
:102C700000F0B682924807F00DFCB1E23B6D5B6854
:102C8000002B00F0AF827B681B88A7F84A30B7F8AA
:102C90004A3087F849303B6D93F84120B7F84A3005
:102CA0001B0A9BB2DBB29A4240F09E823B6D93F8C6
:102CB000423097F849209A4200F09882386D0BF024
:102CC00076F8034687F867303B6D97F8492083F81C
:102CD0004220386DFFF7A4FD034687F8673097F868
:102CE0006730002B00F08482764807F0D3FB7FE248
:102CF0003B6D5B68002B00F07D823B6D9B68002B79
:102D000000F078823B6DDB68002B00F073827B68FB
:102D1000FB6400233B661FE0FB6C19783B6D9B68EE
:102D200098683A6E13465B0013445B0003441B78BB
:102D300099420ED13B6D012283F83C203B6D1A680D
:102D4000FB6C1B78194610460AF06BFF034687F8A8
:102D500067303B6E01333B663B6D9B681B791A46BF
:102D60003B6E9342D8D30023FB6529E0FB6C1978B6
:102D70003B6DDB689868FA6D13465B0013445B009B
:102D800003441B78994218D1FB6C1B78DB09DBB23A
:102D9000012B03D13B6D01221A7703E03B6D012229
:102DA00083F82C203B6D1A68FB6C1B781946104683
:102DB0000AF037FF034687F86730FB6D0133FB6588
:102DC0003B6DDB681B791A46FB6D9342CED314E250
:102DD0003B6D5B68002B00F00D823B6D9B68002B08
:102DE00000F008823B6DDB68002B00F003827B68FB
:102DF000FB640023BB6559E0FB6C19783B6D9B6855
:102E00009868BA6D13465B0013445B0003441B785B
:102E1000994248D13B6D1A68FB6C1B7819461046E5
:102E20000AF017FF034687F86730FB6C1B78DB0955
:102E3000DBB2012B37D13B6D93F83C30002B32D005
:102E40003B6D002283F83C203B6D5B6BB3F1FF3F91
:102E500029D03B6D18683B6D93F83D103B6D5A6B64
:102E60003B6D9B6B0AF0F7FD034687F8673097F8D8
:102E70006730002B10D03B6D5B6BBB623B6D9B6B77
:102E8000FB62002387F830303B6D1B6807F1280197
:102E9000FA6818460AF038FF3B6D4FF0FF325A636C
:102EA0003B6D00229A63BB6D0133BB653B6D9B6834
:102EB0001B791A46BB6D93429ED300237B6592E03B
:102EC000DC0F010024100100FB6C19783B6DDB68FE
:102ED00098687A6D13465B0013445B0003441B78CB
:102EE00099427DD13B6D1A68FB6C1B7819461046E0
:102EF0000AF0AFFE034687F86730FB6C1B78DB09EE
:102F0000DBB2012B35D13B6D1B7F002B68D03B6DB5
:102F100000221A773B6D5B69B3F1FF3F60D03B6DD8
:102F200018683B6D597F3B6D5A693B6D9B690AF090
:102F300092FD034687F8673097F86730002B10D072
:102F40003B6D5B69FB613B6D9B693B62002387F8CE
:102F500024303B6D1B6807F11C01FA6818460AF023
:102F6000D3FE3B6D4FF0FF325A613B6D00229A61F8
:102F700036E03B6D93F82C30002B31D03B6D0022B6
:102F800083F82C203B6D5B6AB3F1FF3F28D03B6D8B
:102F900018683B6D93F82D103B6D5A6A3B6D9B6A28
:102FA0000AF072FD034687F8673097F86730002B08
:102FB0000FD03B6D5B6A3B613B6D9B6A7B6100237D
:102FC0003B763B6D1B6807F11001FA6818460AF062
:102FD000C4FE3B6D4FF0FF325A623B6D00229A6295
:102FE0007B6D01337B653B6DDB681B791A467B6D1E
:102FF0009342FFF469AF00E17B68002B00F0E880AA
:103000007B687B647B6C1B689B88DBB23A6D92F8B3
:103010004120934240F0F0807B6C1B681B7803F0EA
:103020006003202B40F0D4807B6C04337B637B6C8B
:103030000833BB637B6C1B689B88BB877B6C1B68FE
:103040005B88FB877B6C1B7B87F840307B6C1B6845
:103050005B78232B00F2B88001A252F823F000BF66
:10306000F130000009310000213100003931000049
:1030700051310000C9310000C9310000C9310000E0
:10308000C9310000C9310000C9310000C931000058
:10309000C9310000C9310000C9310000C931000048
:1030A000C9310000C9310000C9310000C931000038
:1030B000C9310000C9310000C9310000C931000028
:1030C000C9310000C9310000C9310000C931000018
:1030D000C9310000C9310000C9310000C931000008
:1030E000813100006931000099310000B1310000E8
:1030F0003B6D5B681B68386D07F13402042198470B
:10310000034687F8673064E03B6D5B681B68386D89
:1031100007F1340205219847034687F8673058E0E5
:103120003B6D5B681B68386D07F1340206219847D8
:10313000034687F867304CE03B6D5B681B68386D71
:1031400007F1340207219847034687F8673040E0CB
:103150003B6D5B681B68386D07F1340208219847A6
:10316000034687F8673034E03B6D5B681B68386D59
:1031700007F1340209219847034687F8673028E0B1
:103180003B6D5B681B68386D07F134020A21984774
:10319000034687F867301CE03B6D5B681B68386D41
:1031A00007F134020B219847034687F8673010E097
:1031B0003B6D5B681B68386D07F134020C21984742
:1031C000034687F8673004E0052387F8673000E09E
:1031D00000BF12E000BF10E000BF0EE000BF0CE037
:1031E00000BF0AE000BF08E000BF06E000BF04E047
:1031F00000BF02E000BF00E000BF97F8673018464C
:103200006837BD4680BD00BF80B586B000AF0346BD
:10321000B9607A60FB730123FB7507F11003184650
:10322000FFF7D2FA0346FB75FB7D002B01D0FB7D37
:1032300044E03B691A46FB7B1146184600F060F9F2
:103240000346FB75FB7D002B01D0FB7D36E03B691F
:103250001B68002B01D1032330E03B69BA685A6038
:103260003B69002283F840203B69FF2283F842201B
:103270003B69103318460BF0AFF80346002B02D021
:10328000104807F007F93B69203318460BF0A4F803
:103290000346002B02D00B4807F0FCF83B693033A3
:1032A00018460BF099F80346002B02D0054807F0AA
:1032B000F1F83B691A467B681A60FB7D184618379F
:1032C000BD4680BD6810010080B584B000AF786055
:1032D0000123FB737B68BB60BB68002B01D1032318
:1032E00029E0BB681B6918460BF090F80346002BD9
:1032F00002D0134807F0CEF8BB681B6A18460BF0E3
:1033000085F80346002B02D00D4807F0C3F8BB68D0
:103310001B6B18460BF07AF80346002B02D00848C6
:1033200007F0B8F8B8680AF042FD0346FB73B868C6
:103330000AF0A7FCFB7B18461037BD4680BD00BFD6
:103340007C10010080B584B000AF03463960FB718A
:1033500007F10B0318460BF007F80023FB6018E099
:10336000284AFB681B0113441B68002B0ED0254A1A
:10337000FB681B0113440E331B78FA799A4205D17E
:10338000FB7A18460BF011F8012337E0FB68013394
:10339000FB60FB68002BE3D00023FB6026E0194AAA
:1033A000FB681B0113441B68002B1CD1154AFB68EA
:1033B0001B0113440E33FA791A70FB68DB00124AC2
:1033C0001A441049FB681B010B4408331A60FB6860
:1033D0001B010C4A1A443B681A60FB7A18460AF033
:1033E000E4FF00230AE0FB680133FB60FB68002B6D
:1033F000D5D0FB7A18460AF0D8FF022318461037BA
:10340000BD4680BD600700207007002080B584B0F5
:1034100000AF0346FB710023FB6007F10B03184666
:103420000AF0A2FF2CE01C4AFB681B0113441B6836
:10343000002B22D0184AFB681B0113440E331B7863
:10344000FA799A4219D1144AFB681B0113440022ED
:103450001A60114AFB681B011344043300221A60EE
:103460000D4AFB681B0113440E3300221A70FB7ACD
:1034700018460AF09AFF00230AE0FB680133FB605C
:10348000FB68002BCFD0FB7A18460AF08EFF04238E
:1034900018461037BD4680BD6007002080B584B057
:1034A00000AF786039600023FB6007F10B0318461A
:1034B0000AF05AFF16E0114AFB681B0113441B680F
:1034C0007A689A420BD1FB681B010C4A1A443B688C
:1034D0001A60FB7A18460AF068FF00230AE0FB68CE
:1034E0000133FB60FB68002BE5D0FB7A18460AF03D
:1034F0005CFF042318461037BD4680BD60070020DE
:1035000080B584B000AF03463960FB710023FB60D7
:1035100007F10B0318460AF027FF1FE0154AFB6866
:103520001B0113441B68002B15D0124AFB681B01BA
:1035300013440E331B78FA799A420CD10D4AFB687A
:103540001B0113441A683B681A60FB7A18460AF09C
:103550002CFF00230AE0FB680133FB60FB68002BB3
:10356000DCD0FB7A18460AF020FF042318461037F7
:10357000BD4680BD6007002090B587B000AFF86001
:103580000B467A60FB7201233B7501237B757B68D8
:10359000002B01D1042359E007F110031946F86804
:1035A000FFF77CFF03463B753B7D002B01D00423D6
:1035B0004CE00023BB7542E00023FB7537E0FB7D48
:1035C000244A1B0113440C3319783B695B68186863
:1035D000BA7D13465B0013449B0003449B681B7930
:1035E000994221D1FB7D1B4A1B01134408331C68FF
:1035F0003B695B681968BA7D13465B0013449B0006
:103600000B445B681846FB7A7A681946A047034664
:103610003B753B7D052B01D1052317E03B7D002B3E
:1036200009D100237B7506E0FB7D0133FB75FB7D33
:10363000012BC4D900E000BFBB7D0133BB753B69E2
:103640005B681B7ABA7D9A42B6D37B7D18461C37DD
:10365000BD4690BD9410010090B587B000AF034601
:10366000B9607A60FB7301237B757B68002B06D001
:10367000BB68002B03D0BB685B68002B01D104231F
:1036800070E007F11002FB7B11461846FFF75AFE67
:1036900003467B757B7D002B01D07B7D62E03B691F
:1036A000BA685A603B691A46FB7B304918460AF0F3
:1036B000F0F803467B757B7D002B0AD03B691B68C5
:1036C00018460AF0A7F9FB7B1846FFF79FFE7B7DA3
:1036D00048E00023BB753AE00023FB7531E03B690D
:1036E0005B681968BA7D13465B0013449B000B446A
:1036F0009B681A79FB7D1E491B010B440C331B7818
:103700009A421BD1FB7D1A4A1B0113441C683B697A
:103710005B681968BA7D13465B0013449B00C818A8
:103720003B695B681968BA7D13465B0013449B00D4
:103730000B441A1DFB7B01461846A047FB7D013355
:10374000FB75FB7D012BCAD9BB7D0133BB753B6982
:103750005B681B7ABA7D9A42BED33B691A687B6864
:103760001A607B7D18461C37BD4690BD7BDF00008C
:103770009410010080B483B000AF0346FB7197F949
:103780000730002B0BDBFB7903F01F02074997F989
:1037900007305B09012000FA02F241F8232000BF44
:1037A0000C37BD465DF8047B704700BF00E100E0C8
:1037B00080B483B000AF03463960FB7197F90730DE
:1037C000002B0ADB3B68DAB20C4997F9073012018B
:1037D000D2B20B4483F800230AE03B68DAB208490E
:1037E000FB7903F00F03043B1201D2B20B441A76AB
:1037F00000BF0C37BD465DF8047B704700E100E078
:1038000000ED00E080B500AF044B1B68184609F0DE
:103810003AFBBFF34F8F00BF80BD00BF7807002089
:1038200080B588B000AFF860B9607A600123FB779B
:103830007B68BB617B687B61BB68013B152B00F239
:10384000B78001A252F823F0A1380000B13900007E
:10385000B1390000B1390000B1390000B1390000C0
:10386000B1390000B1390000AD380000F338000074
:1038700075390000893900009D390000B139000018
:10388000B1390000B1390000B1390000B139000090
:10389000B1390000B1390000233900003739000088
:1038A0004C4B00221A730023FB778EE07B69002BC0
:1038B00006D1484B00221A73464B00221A7284E04C
:1038C0007B691B78012B11D1424B01221A737B6952
:1038D0001A78404B1A723F4B5A687B691B7819461D
:1038E000104600F03DFB0023FB776EE00523FB77DD
:1038F0006BE0384B1B7B002B5CD0BB691B881B0A21
:103900009BB2FB74BB691B88BB74FB7C012B51D839
:10391000BA7CFB7C1146184600F05EF80346FB7744
:1039200048E07B68002B47D02A4B1A7A7B691A70D3
:103930000023FB7740E07B68002B3FD0BB691B88EE
:103940001B0A9BB27B747B7C012B10D8BB691B8844
:1039500023F0FF039AB27B7C1E490B445B7A9BB237
:1039600013439AB2BB691A800023FB7726E0052334
:10397000FB7723E07B68002B22D07968F86800F0A1
:103980008DF80346FB771BE07B68002B1AD0796823
:10399000F86800F097F80346FB7713E07B68002B8C
:1039A00012D07968F86800F0A7F80346FB770BE0BF
:1039B00000BF0AE000BF08E000BF06E000BF04E06F
:1039C00000BF02E000BF00E000BFFB7F18462037C9
:1039D000BD4680BD7807002080B584B000AF0346A7
:1039E0000A46FB711346BB710123FB73FB79002B65
:1039F00009D10B4B5B68BA79114618460AF0A7FC4F
:103A00000346FB7300BFFB7B002B04D1FB79044A08
:103A10001344BA795A72FB7B18461037BD4680BDF5
:103A20007807002080B582B000AF0AF05DFC00216D
:103A300017480AF03DFC174B0022DA72154B0022A2
:103A40001A73144B00225A60124B00221A60114A5A
:103A500011490020FFF700FE0346FB71FB79002BA4
:103A600001D0FB790FE00C4B1B685B68094A53607F
:103A7000084800F08FFA0AF03EFC064B1B68184617
:103A800009F0BAFFFB7918460837BD4680BD00BF74
:103A900000D00040780700201800002080B483B0D8
:103AA00000AF786039603B68054A1A603B681222B3
:103AB0005A60002318460C37BD465DF8047B7047FA
:103AC0008000002080B483B000AF786039603B682C
:103AD0001B7A002B07D13B68064A1A603B684B22D1
:103AE0005A60002300E0052318460C37BD465DF8F8
:103AF000047B70479400002080B485B000AF7860EC
:103B000039603B689B7A002B08D12A4B1A683B68C6
:103B10001A60284B5A683B685A6044E00023FB73E4
:103B20000323BB7317E03B681989224B9868FA7B23
:103B300013465B0013449B0003441B89994207D141
:103B40003B689B7A022B0AD83B689B7ABB7306E0E2
:103B5000FB7B0133FB73FB7B002BE4D000E000BF59
:103B6000BB7B032B01D105231EE0124B9968FA7B26
:103B700013465B0013449B000B441A68BB7B9B00FD
:103B800013441A683B681A600A4B9968FA7B13461B
:103B90005B0013449B000B445A68BB7B9B0013449F
:103BA0001A683B685A60002318461437BD465DF812
:103BB000047B70471C01002080B500AF0BF028FC8F
:103BC0000BF005FB0BF0E7FB03F0A4FD03F0F8FDA1
:103BD00003F0E2FE044B0022002104480AF09EFCA0
:103BE00003F084FE00BFFDE7A81F0100B410010030
:103BF00080B58AB000AFF860B9607A60012387F8B9
:103C000027308B4B3B627B68FB617B68BB61BB6889
:103C1000013B0B2B00F2908101A252F823F000BF70
:103C2000513C0000CF3C00000F3D0000393F000038
:103C3000393F00001F3D00006D3D0000393F00008E
:103C4000A73D0000BF3D0000E13D0000393F0000FE
:103C5000BB695B68002B15D0BB695B68754A5288ED
:103C6000B3FBF2F102FB01F29B1A002B0AD10023F5
:103C700000220221F8680AF0F1F8034687F827309D
:103C800000BF5BE16C4B1B681B7B012B40F0568136
:103C90006A4B1B79DBB2012B40F05081BB691B687A
:103CA000002B09D1BB691B68002B40F04781BB6921
:103CB0005B68002B40F042815E4B1B89604A01210A
:103CC000F8680AF01CF9034687F8273036E15A4BAA
:103CD0001B681B7B012B40F03381584B1B79DBB2F7
:103CE000012B40F02D81BB695B68564A1360554B30
:103CF0001B68002B40F024814E4B1B89504A012148
:103D0000F8680AF0FCF8034687F8273018E1FB68EA
:103D1000002283F84320002387F8273013E1FB6952
:103D20005B89012B0DD1FB691B7B012B04D1FB6946
:103D30001B68454A1A6015E0FB695B6800221A603F
:103D400010E0FB695B89022B0CD1FB691B7B012B0B
:103D500004D1FB691B683D4A1A6003E0FB695B689C
:103D600000221A60002387F82730ECE0FB695B89AA
:103D7000012B08D1FB691B68334A1A60FB695B6839
:103D800002221A600BE0FB695B89022B07D1FB69F9
:103D90001B682E4A1A60FB695B6802221A600023C6
:103DA00087F82730CFE0FB691B68294A1A60FB6956
:103DB0005B6807221A60002387F82730C3E0FB699D
:103DC0001B7B012B04D1FB691B68214A1A6003E0AD
:103DD000FB695B6800221A60002387F82730B2E095
:103DE000FB695B89DAB2124B9A733B6A9B7B03F0E7
:103DF0000203002B07D03B6A1B8A43F002039AB2EE
:103E00003B6A1A8206E03B6A1B8A23F002039AB2DD
:103E10003B6A1A823B6A9B7B03F00103002B19D09B
:103E20003B6A1B8A43F001039AB23B6A1A8218E08C
:103E3000900700203C000020E8070020EC0700204D
:103E4000A4070020E4070020880700208C0700203A
:103E50002C0100203B6A1B8A23F001039AB23B6AC3
:103E60001A823B6A9B7B03F00103002B14BF0123E2
:103E70000023DAB23B6A9A723B6AA1221A703B6A4B
:103E800020225A703B6A00229A703B6A0022DA7044
:103E90003B6A00221A713B6A00225A713B6A022275
:103EA0009A713B6A0022DA71FB691B89DAB23B6ABC
:103EB0001A713B6A08337B613B6A1B8ADAB27B6901
:103EC0001A703B6A1B8A1B0A9AB27B690133D2B211
:103ED0001A700A233B61FB6893F84330002B13D11F
:103EE0003A6A3B690121F86809F0B8FF034687F890
:103EF000273097F82730002B02D0164806F0CAFA70
:103F0000FB68012283F843203B6A9B7B03F001039B
:103F1000002B08D0104B1B681B7B012B12D10F4BC1
:103F200001221A710EE00C4B1B681B7B012B09D17F
:103F30000A4B00221A7105E000BF04E000BF02E056
:103F400000BF00E000BF97F8273018462837BD466D
:103F500080BD00BFBC100100E8070020EC07002076
:103F600080B582B000AF78600B46FB70064B1868D6
:103F7000064B1B89064A012109F0C1FF00231846A0
:103F80000837BD4680BD00BFEC0700203C00002084
:103F9000A407002080B483B000AF7860074A7B6834
:103FA0001360064B1B685B68054A136000231846C4
:103FB0000C37BD465DF8047B704700BFE807002062
:103FC000EC07002080B586B000AFF860B9607A6079
:103FD0003B603B687B617B697A68DA627B695B6B1B
:103FE00007F11002114618460BF0C0FC3B69002B8C
:103FF00007D0064B4FF080521A60BFF34F8FBFF3CC
:104000006F8F00BF1837BD4680BD00BF04ED00E0D4
:1040100080B584B000AFF860B9607A603B60FB683F
:10402000002B01D104233AE0BB68002B01D104230B
:1040300035E038220021F8680BF04EFE01200BF02D
:10404000E9FB0246FB681A63FB681B6B002B01D17E
:10405000012324E00322002101200BF063FB024630
:10406000FB685A63FB685B6B002B06D1FB681B6B1C
:1040700018460BF004FD012311E0FB68BA681A60D2
:10408000FB681B683A687968184602F089F9FB6892
:10409000191DFB68044AB86802F09EFA002318460E
:1040A0001037BD4680BD00BFC53F000080B588B059
:1040B00000AFF860B9607A603B603B68BB61002389
:1040C0007B610023FB617B6840F2EB32934209D1B4
:1040D000BB69DB6907F114020121184604F04AFAB2
:1040E000F8612EE07B6840F2EA32934209D1BB6965
:1040F0001B6A07F114020121184604F03BFAF8612B
:104100001FE07B68B3F57C7F09D1BB69DB6907F1F0
:1041100014020221184604F02DFAF86111E07B68C0
:1041200040F2F13293420CD10821F8680AF0A3FF63
:10413000BB69DB6907F114020421184604F01AFA7E
:10414000F861FB69002B0AD07B69002B07D0064B76
:104150004FF080521A60BFF34F8FBFF36F8F00BFD5
:104160002037BD4680BD00BF04ED00E080B588B0BB
:1041700000AFF860B9607A60FB68002B01D10423BE
:10418000A4E0BB68002B01D104239FE07B68002BD7
:1041900001D104239AE07B681B68002B01D1042322
:1041A00094E07B685B68002B01D104238EE07B6880
:1041B0009B68002B01D1042388E07B681A68FB68A8
:1041C0001A60FB68BA685A6201200BF023FB0246B2
:1041D000FB689A61FB689B69002B01D1012375E0A4
:1041E00001200BF017FB0246FB685A61FB685B6914
:1041F000002B06D1FB689B6918460BF040FC01239D
:1042000064E00BF00BF90246FB681A62FB681B6A5C
:10421000002B0BD1FB685B6918460BF030FCFB6888
:104220009B6918460BF02BFC01234FE00BF0F6F8CE
:104230000246FB68DA61FB68DB69002B10D1FB6882
:104240001B6A18460BF08AF9FB685B6918460BF08D
:1042500016FCFB689B6918460BF011FC012335E046
:1042600007F11003184602F097FD7B689B683B61DD
:104270007B681B7B3B757B685B7B7B75FB68186889
:104280007B685A6807F11003194602F0FBFBFB68D4
:104290001868FB68596AFB680E4A02F087FEFB68E3
:1042A0001868FB68596A7B681A697B685B6902F069
:1042B000C7FEFB681B68012118460AF0C1F9FB68BC
:1042C0001B68012118460AF0DBF900231846203745
:1042D000BD4680BDAD40000080B584B000AF7860C1
:1042E0000023FB6009E00E4AFB6852F823307A682D
:1042F0009A4206D0FB680133FB60FB68012BF2D9C0
:1043000000E000BFFB68012B05D9064B064A3521AA
:10431000064805F095F9FB6818461037BD4680BD84
:10432000B01F0100C01F010034200100E41F010084
:1043300080B584B000AF786039603B68002B05D150
:104340003E4B3F4A42213F4805F07AF97868FFF733
:10435000C3FF02463C4B53F8223018460AF0B0F92E
:104360003B685B7803F003023B681B799B0003F01A
:104370000C031343FB603B685B79042B03D0FB68A1
:1043800043F01003FB603B68DB785B0103F06003E4
:10439000FA681343FB603B68DB79002B03D0FB68B2
:1043A00043F08003FB607B68FA689A607B68DB6897
:1043B00023F00F03FB603B685B79042B06D03B685E
:1043C0005B7903F00303FA681343FB603B689B7956
:1043D000002B03D0FB6843F00403FB603B689B7831
:1043E000002B03D0FB6843F00803FB607B68FA688E
:1043F000DA607B681B6A23F00303FB603B681B7871
:1044000003F00303FA681343FB607B68FA681A62DF
:104410003B681B7A002B06D07B685B6A43F008027E
:104420007B685A6205E07B685B6A23F008027B6860
:104430005A6200BF1037BD4680BD00BFFC1F01009F
:1044400048200100E41F0100B81F010080B584B0BE
:1044500000AF786039603B68012B06D90C4B0D4AE0
:1044600040F2E5110C4805F0EBF80023FB607B6897
:104470003A6853F8223003F08003002B03D0FB6826
:1044800043F08003FB60FB6818461037BD4680BDD3
:104490001420010054200100E41F010080B483B007
:1044A00000AF7860084B1B6823F440227B689B04B4
:1044B00003F44023044913430B6000BF0C37BD468F
:1044C0005DF8047B704700BF0070044080B483B087
:1044D00000AF78600B4B03F5805304331B6823F463
:1044E00040327B681B0403F4403306491A4301F54C
:1044F000805304331A6000BF0C37BD465DF8047B5F
:10450000704700BF0070044080B582B000AF194B07
:104510001B7BDBB203F00303012B12D0002B02D074
:10452000022B1CD01EE0144B1B68002B05D1134B33
:10453000134ADA21134805F083F80F4B1B687B60A0
:1045400013E0114B1B68002B05D1104B0C4ADF21E7
:104550000C4805F075F80C4B1B687B6005E00C4BB4
:104560007B6002E000237B6000BF7B681846083751
:10457000BD4680BD00400640F407002070200100C9
:104580003021010084200100F80700209C20010058
:10459000006CDC0280B582B000AFFFF7B5FF786039
:1045A0007B68002B01D17B6851E02B4B1B78DBB281
:1045B000DB08DBB203F00703FB70FB787A6822FAB2
:1045C00003F37B60244B5B78DBB21B09DBB203F0A7
:1045D0000303BB70204B1B7BDBB203F003037B7038
:1045E000BB78002B02D07B78002B02D07B78022B8B
:1045F0002BD1FB78072B25D801A252F823F000BF5E
:10460000214600002146000021460000214600000E
:1046100021460000214600002946000037460000E0
:104620007B685B097B6011E07B680C4AA2FB03237B
:104630001B097B600AE07B68094AA2FB0323DB08B5
:104640007B6003E000237B6000E000BF7B681846CE
:104650000837BD4680BD00BF00400640CDCCCCCC65
:10466000ABAAAAAA80B400AF0C4B9B79DBB203F0D3
:104670000103002B02D10A4B1B6809E0094B1A68A1
:10468000064B1B7ADBB25B0803F0070322FA03F345
:104690001846BD465DF8047B704700BF00400640E9
:1046A000340100203801002080B500AF074B9B7912
:1046B000DBB203F01003002B03D1FFF76BFF0346BF
:1046C00001E0034B1B68184680BD00BF0040064058
:1046D0003401002080B485B000AF78607B6849F673
:1046E0009702934202D80023FB7308E07B68074AD5
:1046F000934202D80123FB7301E00223FB73FB7B8F
:1047000018461437BD465DF8047B704700127A00E6
:1047100080B500AF0B4B1B78DBB25BB2002B0DDA20
:10472000094B1B68002B06D1084B094A40F2631164
:10473000084804F085FF044B1B6800E0002318467E
:1047400080BD00BF00500640F4070020B0200100EB
:10475000482101008420010080B582B000AF194BD0
:104760001B689B0C03F00303022B0FD0032B1CD000
:10477000002B1ED1FFF7CCFF0346B3F5004F02D14B
:104780004FF4004300E000237B6015E00E4B1B68F4
:10479000002B06D10D4B0E4A4FF4BE710D4804F0AC
:1047A0004FFF094B1B687B6006E04FF47A737B6018
:1047B00002E000237B6000BF7B6818460837BD46D7
:1047C00080BD00BF00700440F8070020BC2001003D
:1047D000602101008420010080B582B000AF114B40
:1047E00003F5805304331B681B0C03F00303012BF8
:1047F00008D0002B02D0032B08D00AE000F08CF97F
:10480000786009E000F0D8F9786005E0064B7B603D
:1048100002E000237B6000BF7B6818460837BD4676
:1048200080BD00BF00700440006CDC0280B584B025
:1048300000AF0346FB71FB79132B00F28E8001A2BF
:1048400052F823F09548000095480000B548000054
:10485000D5480000F54800005B49000015490000FC
:104860001D490000254900005B4900005B4900002C
:104870002D490000354900003D4900004549000030
:104880005B4900005B4900005B4900004D490000A6
:104890005349000000F00EF90246344B03F58253F1
:1048A00004331B681B0F03F00F030133B2FBF3F358
:1048B000FB6055E000F0FEF802462C4B03F58253F6
:1048C00004331B681B0E03F00F030133B2FBF3F339
:1048D000FB6045E000F0EEF80246244B03F58253FE
:1048E00004331B681B0D03F00F030133B2FBF3F31A
:1048F000FB6035E000F0DEF802461C4B03F5825306
:1049000004331B681B0C03F00F030133B2FBF3F3FA
:10491000FB6025E0FFF760FFF86021E0FFF71CFF78
:10492000F8601DE0FFF7F4FEF86019E00AF048F8BF
:10493000F86015E000F02EF9F86011E000F0ECF8F6
:10494000F8600DE000F038F9F86009E0084BFB6012
:1049500006E04FF47A73FB6002E00023FB6000BFC7
:10496000FB6818461037BD4680BD00BF007004408C
:10497000006CDC0280B582B000AF78600A497B68C9
:104980005A6801F5825304331A607B681B78184615
:10499000FFF79CFD7B685B781846FFF77FFD00BF43
:1049A0000837BD4680BD00BF0070044080B584B0AC
:1049B00000AF786039600123FB73374809F0A9FF25
:1049C0007B68002B0CD1354B03F5805304331B68F7
:1049D000324923F4802201F5805304331A6041E008
:1049E0003B682F4A93421ED03B682D4A934204D81D
:1049F0003B682C4A93421DD023E03B682A4A9342ED
:104A00000AD03B68294A93421BD1244B03F58253B9
:104A1000083309221A6017E0204B03F5825308334C
:104A200002221A6010E01D4B03F582530833052261
:104A30001A6009E0194B03F58253083300221A600B
:104A400002E00023FB7300BF144B03F580530433D3
:104A50001B6823F4E02211497B681A4301F5805357
:104A600004331A600C4809F03AFF7B68B3F5E02F75
:104A70000DD10F4B032283F844210D4B93F84031A5
:104A8000DBB20B4A63F07F03DBB282F84031FB7B81
:104A900018461037BD4680BD120034100070044027
:104AA00000A24A04006CDC0200D8B805000E2707FB
:104AB0000020074080B582B000AF164B9B79DBB277
:104AC0009B0803F003033B603B68032B1AD801A249
:104AD00052F823F0ED4A0000F54A0000FD4A0000BC
:104AE000E54A000000F068F878600EE000F014F885
:104AF00078600AE0FFF7B6FD786006E0FFF704FD96
:104B0000786002E000237B6000BF7B6818460837AE
:104B1000BD4680BD0040064080B582B000AF1B4B53
:104B20005B78DBB203F00203002B06D1174B9B79B5
:104B3000DBB203F02003002B01D0002322E0FFF7BB
:104B4000B3FD78607B68002B01D17B681AE00F4BC6
:104B5000DB78DBB25B09DBB203F00303FB700B4BCA
:104B6000DB78DBB2DB09DBB203F00103BB70FA7860
:104B7000BB7807495200134431F813301A467B685A
:104B800003FB02F318460837BD4680BD00400640CF
:104B90007821010080B500AF064B1B78DBB203F033
:104BA0000203002B01D1002302E0FFF75BFD034667
:104BB000184680BD0040064080B582B000AF184B5B
:104BC0009B79DBB203F04003002B01D1002322E0EC
:104BD00009F0EFFE78607B68002B06D1114B124A7A
:104BE00040F2DF21114804F02BFD0D4B1B79DBB2A5
:104BF00003F01F0301337A68B2FBF3F37B60084BC9
:104C00005B79DBB203F01F0303F118027B6802FB40
:104C100003F37B607B6818460837BD4680BD00BF44
:104C200000400640CC2001008821010084200100C2
:104C300080B485B000AF0346FB71174B1B7BDBB222
:104C400003F00302FB799A4202D00123FB7301E0D7
:104C50000023FB73104B1B7BDBB223F00303DAB2A0
:104C6000FB7903F00303DBB20B491343DBB20B7395
:104C7000FB7B002B09D040F2DC53BB6000E000BF9F
:104C8000BB685A1EBA60002BF9D1002318461437AE
:104C9000BD465DF8047B70470040064080B584B097
:104CA00000AF78607B68002B06D11D4B1D4A40F297
:104CB000D7311D4804F0C4FC0023FB737B685B788C
:104CC00003F01F03DAB2FB7B1343FB73174AFB7B32
:104CD0001371164B5B79DBB223F01F03DAB27B68EA
:104CE0009B7803F01F03DBB210491343DBB24B7117
:104CF0000E4B1B79DAB27B681B781343DBB20B4A8D
:104D000043F04003DBB2137100BF084B9B79DBB269
:104D100003F04003002BF8D000BF1037BD4680BD24
:104D2000D82001009C2101008420010000400640A1
:104D300080B584B000AF78607B681B681846FFF7C9
:104D4000C9FC0346FB737B681B791946194809F0B7
:104D500016FE194B5B78DBB223F03C03DAB2FB7B27
:104D60001B01DBB203F03003DBB21343DAB27B6822
:104D70005B7911491343DBB24B707B6806331946EC
:104D80000C4809F0E2FD7B685B79002B0DD0094BE4
:104D90001B78DBB25BB2002B07DA00BF064B9B79B6
:104DA000DBB203F00203002BF8D000BF1037BD4682
:104DB00080BD00BF005006400040064080B582B074
:104DC00000AF03463960FB713B68002B06D1254BD1
:104DD000254A4FF4E661254804F032FC244B5B7809
:104DE000DBB2234A23F00203DBB25370204B1B7863
:104DF000DBB203F03B03DBB21D4A63F07F03DBB29F
:104E0000137000BF1A4B9B79DBB203F01C03082B15
:104E1000F8D1174B5B79DBB2154A23F04003DBB2C4
:104E2000537100BF124B9B79DBB203F02003002BC0
:104E3000F8D13868FFF732FF0D4B5B79DBB20C4AD3
:104E400043F04003DBB2537100BF094B9B79DBB2E7
:104E500003F02003002BF8D0002318460837BD4686
:104E600080BD00BFD8200100B021010084200100D6
:104E70000040064080B582B000AF03463A60FB7147
:104E80000B46BB713B68002B06D1134B134A40F60F
:104E90004901134804F0D4FBFB791846FFF7C8FE1C
:104EA000BB7939681846FFF789FF0E4B1B78DBB2D8
:104EB0000C4A03F03F03DBB2137000BF094B9B7930
:104EC000DBB29B0803F00303032BF7D10023184642
:104ED0000837BD4680BD00BFD8200100C4210100B5
:104EE000842001000040064090B589B000AF786092
:104EF0007B68002B06D1554B554A40F2F44155488A
:104F000004F09EFB7B689B687A68127CDA777B688A
:104F10009A687B681B7C5B01134403F580531C3348
:104F20001B889BB203F08003002B14BF01230023D6
:104F3000BB767B68DB68002B0CD17B681B68002B81
:104F40007FD07B681C687B685968BA7E00237868CC
:104F5000A04776E07B689A687B681B7C5B01134402
:104F600003F5805318331B687B617B68DB681A4646
:104F70007B699B1A7B617B695B093B61BB7E002B74
:104F800002D03B69FB760EE03B69002B04D03B6905
:104F9000DBB2013BDBB205E07B681B7D5BB2DBB2C1
:104FA000013BDBB2FB767B685B7C5AB297F91B3026
:104FB0009A4213D17B68DB7CFB737B681B7DBB73E0
:104FC00097F90F2097F90E309A4204D17B68DB7C69
:104FD0005BB2FB6112E00023FB610FE0FB7E7A68AD
:104FE000527C52B29B1AFB61FB69002B06DA7B688C
:104FF0001B7D5BB21A46FB691344FB6197F91B20CA
:105000007B685A747B68DB7C5BB2DAB2FB69DBB22B
:10501000D31ADBB25AB27B68DA747B681B68002B48
:1050200007D07B681C687B685968FB69BA7E786822
:10503000A047BB7E002B04D07B689B687A68127CFB
:105040001A7700BF2437BD4690BD00BFE42201009F
:1050500068240100FC21010080B500AF044B1B68EF
:105060001846FFF741FFBFF34F8F00BF80BD00BF61
:10507000FC07002080B500AF044B5B681846FFF7C3
:1050800033FFBFF34F8F00BF80BD00BFFC07002080
:1050900080B500AF044B9B681846FFF725FFBFF3B0
:1050A0004F8F00BF80BD00BFFC07002080B500AF60
:1050B000044BDB681846FFF717FFBFF34F8F00BFA5
:1050C00080BD00BFFC07002080B500AF044B1B690A
:1050D0001846FFF709FFBFF34F8F00BF80BD00BF29
:1050E000FC07002080B500AF044B5B691846FFF752
:1050F000FBFEBFF34F8F00BF80BD00BFFC07002049
:1051000080B500AF044B9B691846FFF7EDFEBFF377
:105110004F8F00BF80BD00BFFC07002080B500AFEF
:10512000044BDB691846FFF7DFFEBFF34F8F00BF6C
:1051300080BD00BFFC07002080B500AF044B1B6A98
:105140001846FFF7D1FEBFF34F8F00BF80BD00BFF1
:10515000FC07002080B500AF044B5B6A1846FFF7E0
:10516000C3FEBFF34F8F00BF80BD00BFFC07002010
:1051700080B500AF044B9B6A1846FFF7B5FEBFF33E
:105180004F8F00BF80BD00BFFC07002080B500AF7F
:10519000044BDB6A1846FFF7A7FEBFF34F8F00BF33
:1051A00080BD00BFFC07002080B500AF044B1B6B27
:1051B0001846FFF799FEBFF34F8F00BF80BD00BFB9
:1051C000FC07002080B500AF044B5B6B1846FFF76F
:1051D0008BFEBFF34F8F00BF80BD00BFFC070020D8
:1051E00080B500AF044B9B6B1846FFF77DFEBFF305
:1051F0004F8F00BF80BD00BFFC07002080B500AF0F
:10520000044BDB6B1846FFF76FFEBFF34F8F00BFF9
:1052100080BD00BFFC07002080B584B000AF78607F
:105220000023FB6006E00D4A7B68934206D0FB68D2
:105230000133FB60FB68002BF5D000E000BFFB688A
:10524000002B06D0064B074A40F22D11064804F009
:10525000F7F9FB6818461037BD4680BD0040024094
:10526000782401006C280100A024010080B584B0DE
:1052700000AF78607B681B68002B06DA2F4B304A42
:105280004FF4FF712F4804F0DBF900BF7B681B6807
:1052900003F48013002BF9D17B681B6843F0007284
:1052A0007B681A6000BF7B681B6803F00073002BEB
:1052B000F9D17B681B6843F4201343F00F037A682D
:1052C00013607B6880225A607B684FF433025A6314
:1052D0000023FB730AE0FA7B7B6802F508726FF02B
:1052E000404143F82210FB7B0133FB73FB7B0F2B08
:1052F000F1D97B686FF040421A617B686FF04042E1
:105300005A617B686FF040429A617B686FF040425F
:105310009A640023FB7309E0FB7B7A6808331B0166
:10532000134400221A60FB7B0133FB73FB7B0F2BC2
:10533000F2D900BF1037BD4680BD00BF082501006F
:1053400080280100A024010082B080B586B000AFA3
:10535000F860B9607A607B6297F827301A4697F850
:105360002830134497F82920134404333B617B68A9
:105370003A6902FB03F37B617B681A4A934206D9C0
:10538000194B1A4A40F25121194804F059F97A6927
:10539000BB689A4206D9174B144A40F2532114486D
:1053A00004F04EF97B69002B01D101237B61BA68BF
:1053B0007B69B2FBF3F3013B7B617B69FF2B01D976
:1053C000FF237B617B699BB2BB8407F124031946F1
:1053D000F86800F0BFF800BF1837BD46BDE8804050
:1053E00002B0704740420F003025010090280100B4
:1053F000A02401004C25010080B588B002AFF86000
:10540000B9607A60BB68002B06D14D4B4D4A40F223
:10541000AD214D4804F014F9BB689B79002B03D0F3
:10542000BB689B79102B06D9484B464A40F2AF2106
:10543000454804F005F9F868FFF7EEFE7861444B43
:10544000184609F0D4FA0021F86809F0EAFABB68B6
:105450001B79002B04D1FB685B6823F4005303E045
:10546000FB685B6843F40053FA6853600121F868F5
:1054700009F0D7FAF868FFF7F9FEFB681B683B6193
:105480003B6923F07F02BB689B79013B03F07F03FC
:1054900013433B61BB68DB79002B04D0FB685B687E
:1054A00043F4805303E0FB685B6823F48053FA689D
:1054B0005360BB681B7A002B04D0FB685B6843F029
:1054C000200303E0FB685B6823F02003FA68536065
:1054D000BB685B7A002B03D03B6943F4800302E096
:1054E0003B6923F480033B61BB685B79012B03D1EB
:1054F0003B6943F4002302E03B6923F400233B6152
:10550000BB689B7A002B03D03B6943F4803302E0F5
:105510003B6923F480333B61FB683A691A60BB68DE
:105520001968BB681A8AADF80020DB680A467968FA
:10553000F868FFF709FF00BF1837BD4680BD00BF00
:1055400068250100A4280100A0240100782501009D
:1055500004003C1080B582B000AF786039603B68D1
:10556000002B06D11B4B1C4A40F2B6311B4804F0FD
:1055700067F8786809F07FFA7B685A684FF6F87325
:1055800013407A6853607B685A683B681B88190629
:105590003B689B789B0503F4400319433B68DB7829
:1055A000DB0403F4601319433B681B791B0403F409
:1055B000E02319433B685B7903F007030B431A436D
:1055C0007B685A60786809F073FA00BF0837BD46F7
:1055D00080BD00BF68250100B4280100A02401009F
:1055E00080B582B000AF78600B46FB701346BB708D
:1055F000FA787B681B6803F07F039A4206D9234B35
:10560000234A40F25D41234804F01AF8FB7819461A
:10561000786809F06AFA034683F00103DBB2002BD5
:1056200006D11D4B1A4A40F25E411A4804F008F8B0
:10563000BB78002B08D0FB787A6808331B01134431
:105640004FF000621A6006E0FB787A6808331B01AD
:10565000134400221A60FB787A6808331B01134454
:10566000043300221A60FB787A681B0113448833E4
:1056700000221A60FB787A681B0113448C330022E5
:105680001A6000BF0837BD4680BD00BF1826010064
:10569000CC280100A02401004426010080B586B07A
:1056A00000AFF8607A601A460B46FB721346BB7275
:1056B000FA7AFB681B6803F07F039A4206D9384BDD
:1056C000384A4FF4BD61384803F0BAFF7B68002BBD
:1056D00009D1BB7A002B06D0344B324A40F2E95153
:1056E000314803F0ADFFFB7A1946F86809F0FDF97F
:1056F000034683F00103DBB2002B06D12C4B294A71
:1057000040F2EA51284803F09BFF00237B61FB7ABB
:10571000FA6808331B01134400221A60FB7AFA6806
:1057200008331B011344043300221A60FB7AFA6821
:105730001B011344883300221A60FB7AFA681B01AC
:1057400013448C3300221A60BB7A002B23D0FB7ADF
:105750007A681268F96808331B010B4404331A6035
:105760007B681B79012B03D17B6943F400137B61B8
:105770007B685B79012B03D17B6943F480137B61E8
:105780007B6943F080637B61FB7AFA6808331B0115
:1057900013447A691A6000BF1837BD4680BD00BF48
:1057A00018260100E4280100A0240100A826010019
:1057B000D026010080B500AF0A4B1B68002B06D134
:1057C000094B0A4A40F61E41094803F039FF094BCC
:1057D0001B68044A1268114607489847BFF34F8F69
:1057E00000BF80BD3C08002050280100FC280100BB
:1057F000A0240100400800200040024080B584B091
:1058000000AF78600423BB600023FB6009E00F4A0F
:10581000FB6852F823307A689A4207D0FB6801335C
:10582000FB60FA68BB689A42F1D300E000BFFA68F7
:10583000BB689A4205D3064B064A5021064803F03E
:10584000FFFEFB6818461037BD4680BD14290100D5
:1058500034290100F82901005029010080B487B0E3
:1058600000AF786039600023FB7500233B610023A3
:10587000FB607B689B6DFB60FB6843F00803FB608B
:105880007B685B6E3B610023FB750BE0FB7DDB00FF
:105890000533012202FA03F33A6913433B61FB7DAE
:1058A0000133FB75FA7D7B682F498B4213D07B68EF
:1058B0002E498B420DD07B682D498B4207D07B68E7
:1058C0002C498B4201D1042306E0002304E001238C
:1058D00002E0012300E004239342D7DC7B683A69AD
:1058E0005A667B68D3F88C303B613B6943F0B40364
:1058F0003B613B6803F08003002B03D03B6943F41A
:10590000F8533B613B6803F07003002B1ED03B69EA
:1059100043F4F8133B613B6803F01003002B03D002
:10592000FB6843F01003FB603B6803F02003002B8F
:1059300003D0FB6843F02003FB603B6803F04003A7
:10594000002B03D0FB6843F04003FB607B68FA68E0
:105950009A657B683A69C3F88C2000BF1C37BD4646
:105960005DF8047B704700BF008003400090034057
:1059700000A0034000900B4080B586B000AF786077
:10598000396000237B6100233B617B68464A934278
:1059900014D07B68454A93420ED07B68444A9342B8
:1059A00008D07B68434A934201D1082307E04FF0B7
:1059B000FF3304E0022302E0022300E00823FB732C
:1059C00097F90F30B3F1FF3F05D13B4B3B4A95218F
:1059D0003B4803F035FE7B68D3F88C3043F004027B
:1059E0007B68C3F88C207B685B6E3B6100237B6126
:1059F0000BE07B69DB000533012202FA03F33A690D
:105A000013433B617B6901337B6197F90F30DA0FF8
:105A100013445B105BB21A467B699342E9D37B68FF
:105A20003A695A667B68D3F898303B6197F90F3032
:105A3000012202FA03F35B423A6913403B6197F992
:105A40000F30012202FA03F35A1E3B6813403A69F1
:105A500013433B617B683A69C3F898207B689B6D70
:105A60003B613B6803F48073002B04D03B6943F037
:105A700002033B6103E03B6923F002033B613B68A7
:105A800003F40073002B04D03B6943F001033B6136
:105A900003E03B6923F001033B617B683A699A6547
:105AA00000BF1837BD4680BD008003400090034012
:105AB00000A0034000900B4068290100082A010063
:105AC0005029010080B584B000AF786039603B6830
:105AD000002B05D1374B384ADB21384803F0B0FDA5
