:1000000000060020D500000043010000110400009C
:1000100000000000000000000000000000000000E0
:100020000000000000000000000000004701000088
:100030000000000000000000490100004B0100002A
:100040004F010000570100005F0100006701000040
:100050006F010000770100007F01000087010000B0
:100060008F010000970100009F010000A701000020
:10007000AF010000B7010000BF0100003D19000002
:10008000CF010000991A0000DF010000E701000025
:10009000EF010000F7010000FF010000070200006F
:1000A0000F020000170200001F02000027020000DC
:1000B000ED1C0000370200003F020000E9180000BC
:1000C000583A000080FEFF1F0400000084FEFF1F5E
:1000D0003C01000010B572B602F030F80D4B07E09D
:1000E000186859681C000C349A6800F019F823004D
:1000F000094A9342F4D306E018681C000834596892
:1001000000F017F82300054A9342F5D362B602F0D7
:1001100056FEFEE7C0000000CC000000D400000046
:1001200010B50023934203D210C810C10433F9E77D
:1001300010BD00238B4203D2002204C00433F9E730
:100140007047FEE7FEE7FEE7FEE7FEE7FEE710B5D5
:10015000FFF7FCFF10BD10B5FFF7F8FF10BD10B59D
:10016000FFF7F4FF10BD10B5FFF7F0FF10BD10B59D
:10017000FFF7ECFF10BD10B5FFF7E8FF10BD10B59D
:10018000FFF7E4FF10BD10B5FFF7E0FF10BD10B59D
:1001900001F078F810BD10B5FFF7D8FF10BD10B50D
:1001A00001F06AF910BD10B5FFF7D0FF10BD10B512
:1001B00001F026F910BD10B5FFF7C8FF10BD10B54E
:1001C000FFF7C4FF10BD10B5FFF7C0FF10BD10B59D
:1001D000FFF7BCFF10BD10B5FFF7B8FF10BD10B59D
:1001E000FFF7B4FF10BD10B5FFF7B0FF10BD10B59D
:1001F000FFF7ACFF10BD10B5FFF7A8FF10BD10B59D
:10020000FFF7A4FF10BD10B5FFF7A0FF10BD10B59C
:10021000FFF79CFF10BD10B5FFF798FF10BD10B59C
:10022000FFF794FF10BD10B5FFF790FF10BD10B59C
:10023000FFF78CFF10BD10B5FFF788FF10BD10B59C
:10024000FFF784FF10BD10B5FFF780FF10BDFFFF63
:10025000FFFFFFFFFFFFFFFFFFFFFFFFFFFFFFFFAE
:10026000FFFFFFFFFFFFFFFFFFFFFFFFFFFFFFFF9E
:10027000FFFFFFFFFFFFFFFFFFFFFFFFFFFFFFFF8E
:10028000FFFFFFFFFFFFFFFFFFFFFFFFFFFFFFFF7E
:10029000FFFFFFFFFFFFFFFFFFFFFFFFFFFFFFFF6E
:1002A000FFFFFFFFFFFFFFFFFFFFFFFFFFFFFFFF5E
:1002B000FFFFFFFFFFFFFFFFFFFFFFFFFFFFFFFF4E
:1002C000FFFFFFFFFFFFFFFFFFFFFFFFFFFFFFFF3E
:1002D000FFFFFFFFFFFFFFFFFFFFFFFFFFFFFFFF2E
:1002E000FFFFFFFFFFFFFFFFFFFFFFFFFFFFFFFF1E
:1002F000FFFFFFFFFFFFFFFFFFFFFFFFFFFFFFFF0E
:10030000FFFFFFFFFFFFFFFFFFFFFFFFFFFFFFFFFD
:10031000FFFFFFFFFFFFFFFFFFFFFFFFFFFFFFFFED
:10032000FFFFFFFFFFFFFFFFFFFFFFFFFFFFFFFFDD
:10033000FFFFFFFFFFFFFFFFFFFFFFFFFFFFFFFFCD
:10034000FFFFFFFFFFFFFFFFFFFFFFFFFFFFFFFFBD
:10035000FFFFFFFFFFFFFFFFFFFFFFFFFFFFFFFFAD
:10036000FFFFFFFFFFFFFFFFFFFFFFFFFFFFFFFF9D
:10037000FFFFFFFFFFFFFFFFFFFFFFFFFFFFFFFF8D
:10038000FFFFFFFFFFFFFFFFFFFFFFFFFFFFFFFF7D
:10039000FFFFFFFFFFFFFFFFFFFFFFFFFFFFFFFF6D
:1003A000FFFFFFFFFFFFFFFFFFFFFFFFFFFFFFFF5D
:1003B000FFFFFFFFFFFFFFFFFFFFFFFFFFFFFFFF4D
:1003C000FFFFFFFFFFFFFFFFFFFFFFFFFFFFFFFF3D
:1003D000FFFFFFFFFFFFFFFFFFFFFFFFFFFFFFFF2D
:1003E000FFFFFFFFFFFFFFFFFFFFFFFFFFFFFFFF1D
:1003F000FFFFFFFFFFFFFFFFFFFFFFFFFFFFFFFF0D
:10040000FFFFFFFFFFFFFFFFFFFFFFFFFE3DFFFFBF
:1004100004207146084202D0EFF3098001E0EFF3B7
:10042000088081690A88054B9A4200D0FEE70231B4
:100430008161202101607047C0460000ABBE000012
:1004400080B582B000AF7860084B1B68084A134043
:1004500019007B689A04C0231B031A40034B0A430C
:100460001A60C046BD4602B080BDC0460070044060
:10047000FFFFF3FF80B500AF0E4B1B78DBB21A0015
:100480000223134007D10B4B9B79DBB29B0803225D
:100490001340012B09D1074B5B78DBB21A00012313
:1004A0001A40054B9200D35800E000231800BD46C7
:1004B00080BDC046004006401830000080B500AF47
:1004C0000A4B1B78DBB25BB2002B0ADA084B1B68C5
:1004D000002B03D1074B180001F04EFE044B1B68A4
:1004E00000E000231800BD4680BDC0460050064015
:1004F00084FEFF1F382F000080B582B000AF184B7C
:100500001B689B0C03221340022B10D0032B1AD024
:10051000002B1CD1FFF7D2FF020080231B029A425E
:1005200002D180231B0200E000237B6012E00D4B10
:100530001B68002B03D10C4B180001F01DFE094B6A
:100540001B687B6006E0FA239B007B6002E00023CF
:100550007B60C0467B681800BD4602B080BDC046C7
:100560000070044088FEFF1F642F000080B584B037
:1005700000AF0200FB1D1A70FB1D1B780B2B47D828
:100580009A00274BD3181B689F4600F0A3F8254A12
:10059000254BD3581B0F0F2213400133190002F0D3
:1005A00051FC0300FB6036E000F094F81D4A1E4B3E
:1005B000D3581B0F0F2213400133190002F042FCE5
:1005C0000300FB60174A184BD3581B0C072213403B
:1005D00001331900F86802F035FC0300FB601AE0F3
:1005E000FFF78AFF0300FB6015E0FFF767FF0300DA
:1005F000FB6010E000F030F80300FB600BE000F05F
:100600004FF80300FB6006E0FA239B00FB6002E06A
:100610000023FB60C046FB681800BD4604B080BDE7
:10062000E82F0000007004404410000080B582B044
:1006300000AF786006497B685B68064A8B507B6830
:100640001B781800FFF7FCFEC046BD4602B080BD17
:10065000007004404410000080B582B000AF0F4B22
:100660001B7ADBB25B08DAB2FB1D07210A401A7065
:100670000A4B1B7EDAB2BB1D07210A401A70FFF736
:10068000F9FE0100FB1D1A78BB1D1B78D318D94059
:100690000B001800BD4602B080BDC04600400640B9
:1006A00080B500AF094B1B7EDBB25BB2002B06DBD3
:1006B000064B9B79DBB29B080322134001D1044B0C
:1006C00000E000231800BD4680BDC0460040064043
:1006D000006CDC0280B582B000AF184B9B79DBB2B6
:1006E0009B0803221340012B07D0002B02D0022BC2
:1006F00010D01BE0124B7B601BE0FFF7BBFE01003C
:100700000E4B1B7ADBB25B0807221340D9400B006B
:100710007B600EE00B4B1B68002B03D10A4B1800CB
:1007200001F02AFD074B1B687B6002E000237B6021
:10073000C0467B681800BD4602B080BD0040064040
:10074000006CDC0284FEFF1F902F000080B582B099
:1007500000AF78607B68002B03D13E4B180001F09E
:100760000BFD3D4B9B79DBB29B0803221340012B11
:100770001DD17B681B78012B19D1374B5B78DBB21D
:100780001A00012313407A68927893420FD0324BBB
:100790001B78DBB2304A3F210B40DBB21370C046FE
:1007A0002D4B9B79DBB29B0803221340F8D17B6869
:1007B000DB78DB18DBB2284A0E210B40DBB2137268
:1007C0007B685B79DB01DAB27B681B7907210B4020
:1007D000DBB221491343DBB20B761F4B5B78DBB2F4
:1007E00001229343DAB27B689B7801210B40DBB294
:1007F00019491343DBB24B707B681B789B01DAB25B
:100800007B685B7814491343DBB20B70124B5B7847
:10081000DBB21A00042313400BD07B681B78022B39
:1008200007D1C0460C4B9B79DBB21A000223134060
:10083000F8D0C0467B681B781900074B9B79DBB268
:100840009B08032213409942F4D100231800BD46AF
:1008500002B080BDBC2F00000040064080B584B0CF
:1008600000AF78600023FB6009E00D4BFA6892004E
:10087000D3587A689A4206D0FB680133FB60FB6864
:10088000012BF2D900E0C046FB68012B03D9054BD0
:10089000180001F071FCFB681800BD4604B080BD73
:1008A000283000003030000080B584B000AF7860A0
:1008B00039607B681800FFF7D1FF02000F217B1819
:1008C0001A707B181A78064B9200D358BB60BB682D
:1008D000A0213A685A50C046BD4604B080BDC0460B
:1008E0002030000080B582B000AF0200FB1D1A70FE
:1008F000FB1D1B787F2B09D8FB1D1B781A001F23BB
:100900001A40044B012191400A001A60C046BD46BE
:1009100002B080BD00E100E080B584B000AF786037
:100920007B681B0C084A94466344FB60FB681968AB
:100930007B681B041B0C01229A40FB680A431A6067
:10094000C046BD4604B080BD0070044080B584B090
:1009500000AF78600023FB6006E00C4A7B6893429E
:1009600006D0FB680133FB60FB68002BF5D000E08C
:10097000C046FB68002B03D0054B180001F0FCFBC0
:10098000FB681800BD4604B080BDC046006006404C
:1009900078310000B0B586B000AFF860B9607A6019
:1009A00000237B6113217B187A6852791A70BB6827
:1009B0007A6831CA31C331CA31C37B685A69BB68AE
:1009C0009A61BB681B7B002B06D07B685B79012B8F
:1009D00002D17B1800221A70BB6801221A77264ABE
:1009E000FB681100180001F0BFFFBB681B68012203
:1009F000134020D0BB681B7B002B03D0BB680222B6
:100A00001A770AE01323FB181B78002B03D1BB686D
:100A100003221A7701E004232AE0C046FB68DB7852
:100A2000DBB25BB2002BF9DABA68FB681100180080
:100A300000F0CAFB1BE0BB681B68022213400BD00E
:100A4000BB6819791323FB181A78FB68180000F0AB
:100A5000E5FA03007B610AE0BB6819791323FB18F0
:100A60001A78FB68180000F097FA03007B617B6935
:100A70001800BD4606B0B0BD1250000080B584B06D
:100A800000AF786039600023FB603B6810221340A0
:100A900005D07B681022DA70064BFB6005E03B68EE
:100AA0000122134001D0044BFB60FB681800BD46D7
:100AB00004B080BD4F0400004E04000090B589B022
:100AC00000AFF860B9607A600023FB61FB68DB78F7
:100AD000DBB2BB617B6800221A701623FB18002270
:100AE0001A70BB681B7F032B03D1BB685B69002BAB
:100AF00007D0BB681B7F052B05D1BB685B69012B49
:100B000001D1012200E0002217243B191A701A7843
:100B100001210A401A7016217B181B78DBB20133C1
:100B2000DAB27B181A70BA69FB6811001800FFF777
:100B3000A5FF0300FB61FB69774A934205D13B198E
:100B40001B78002B01D00023FB61BB681B7F012BAE
:100B500019D1BB690122134002D0704BFB6112E036
:100B6000BB681B7B002B03D0BB6802221A770AE00C
:100B7000BB685B79002B03D1BB6803221A7702E0C4
:100B8000BB6804221A77FB69002B01D0FB69BFE028
:100B9000BB681B7F032B47D002DC022B06D0B6E0DC
:100BA000042B59D0052B00D174E0B0E0BB681B7B4F
:100BB000002B10D0BB681B7B013BDAB2BB681A73F9
:100BC000BB689A68BB681B7BDB00DA401300DAB2B3
:100BD000FB681A7198E0BB685B79002B17D1BB6882
:100BE00003221A77BB685B69002B00D18CE0BB68DD
:100BF0001B691A78FB681A71BB681B695A1CBB68B1
:100C00001A61BB685B695A1EBB685A617CE0BB68AD
:100C10001979FB680122180000F000FA0300FB615B
:100C2000BB6804221A776FE0BB685B69002B0FD0AA
:100C3000BB681B691A78FB681A71BB681B695A1C70
:100C4000BB681A61BB685B695A1EBB685A615EE08B
:100C50007B6801221A705AE0FB689B78DBB218228D
:100C60009343DAB2FB689A70BB685B69012B07D1CA
:100C7000FB689B78DBB208221343DAB2FB689A70F8
:100C8000FB681B79DAB21623FB181A70BB680522C1
:100C90001A773CE0BB685B69591EBA685161002B4A
:100CA00034D0BB685B69002B16D17B6801221A70B7
:100CB000BB681B680422134006D1FB68180001F0D2
:100CC000CDFE0300FB6107E0FB689B78DBB21022DE
:100CD0001343DAB2FB689A70BB685B69012B07D1DA
:100CE000FB689B78DBB208221343DAB2FB689A7088
:100CF000BB681B69FA681279D2B21A70BB681B69AB
:100D00005A1CBB681A6101E0C04600E0C046FB699E
:100D10001800BD4609B090BD4E040000510400000B
:100D200080B582B000AF786039607B68DB78DBB279
:100D30001A001023134006D17B689B78DBB21A009F
:100D40002023134006D0094B1B6839687A681000CD
:100D5000984705E0064B1B6839687A681000984789
:100D6000BFF34F8FC046BD4602B080BD90FEFF1F4F
:100D700094FEFF1F80B586B000AFF860B9607A605E
:100D8000BB68002B02D07B68002B03D1334B1800CB
:100D900001F0F2F9FB681800FFF7D8FD304B18009E
:100DA000FFF7BAFDFB6800221A70FB6800225A7038
:100DB000FB6800229A70FB68FF22DA70FB68002251
:100DC0005A71FB6850229A71FB680022DA71FB6845
:100DD0009B78DBB27F221340DAB2FB689A70214A1B
:100DE000FB681100180001F0BFFDBB6859687A6804
:100DF000FB68180000F058F817203B18FA68927941
:100E00001A703B183A1812787F210A401A70BB6892
:100E10005B78DB01D9B23B183A1812780A431A7092
:100E20003B183A1812780F218A431A70BB681B7A54
:100E30000F221340D9B23B183A1812780A431A709D
:100E4000FB683A1812789A71BB681B78DB01DAB23A
:100E5000FB689A70C046BD4606B080BDB831000040
:100E6000060034101250000080B582B000AF7860E8
:100E70007B68002B03D10A4B180001F07DF97B68D9
:100E8000084A5A607B6800225A707B6800221A72F6
:100E90007B6801221A70C046BD4602B080BDC046C4
:100EA000F0310000A086010080B58CB000AFF86082
:100EB000B9607A6001235B42FB620023BB620023BE
:100EC0007B622323FB1800221A704AE02323FB18BD
:100ED0001B7801229A401300FB612223FB18002299
:100EE0001A7031E02223FB181A782A4B5200D35A89
:100EF0001A00FB6953431900786801F0A3FF03004F
:100F0000BB61BA68BB699A4203D9BA68BB69D31A94
:100F100002E0BA69BB68D31A7B617A69FB6A9A42BC
:100F20000CD22323FB181B78BB622223FB181B78EF
:100F30007B627B69FB627B69002B0BD02222BB1892
:100F4000BA18127801321A702223FB181B783F2B33
:100F5000C8D900E0C0462322BB18BA181278013263
:100F60001A702323FB181B78022B02D8FB6A002B74
:100F7000ACD1BB6ADBB29B01DAB27B6ADBB23F2148
:100F80000B40DBB21343DAB2FB685A70C046BD4671
:100F90000CB080BDF830000080B584B000AF786040
:100FA00008001100FB1C021C1A70BB1C0A1C1A70E2
:100FB0000023FB607B68180001F06BFD0300BB6041
:100FC000BB682022134002D0134BFB601EE07B68FD
:100FD0009B78DBB230221343DAB27B689A70C0464A
:100FE0007B681B7BDBB21A0001231340F8D0FB1C8B
:100FF0001B78DB18DAB2BB1C1B78012B01D1012353
:1010000000E000231343DAB27B681A71FB68180012
:10101000BD4604B080BDC0464C04000080B586B01B
:1010200000AF786008001100FB1C021C1A70BB1C8A
:101030000A1C1A7000237B617B68180001F029FDEF
:101040000300FB601323FB1806221A70FB682022A2
:10105000134009D07B689B78DBB21A002023134031
:1010600002D1204B7B6138E00B217B187A685278E3
:101070001A707B181B783F221340DAB27B685A70D3
:101080007B689B78DBB214221343DAB27B689A70D8
:101090007B687A1812785A7000E0C0461322BB1899
:1010A0001B78BA18591E1170002BF6D1C0467B6808
:1010B0001B7BDBB21A0001231340F8D0FB1C1B780A
:1010C000DB18DAB2BB1C1B78012B01D1012300E035
:1010D00000231343DAB27B681A717B691800BD469E
:1010E00006B080BD4C04000080B586B000AFF8604B
:1010F000B9607A603B60BB68002B03D1124B1800CB
:1011000001F03AF8FB681800FFF720FC03007B6150
:10111000BB6828220021180001F057FEBB687A68DE
:101120001A62BB683A685A62084B7A699200B968D9
:10113000D150074B074A1A600823180001F0FCFB46
:10114000C046BD4606B080BD3C3200008CFEFF1F8D
:1011500090FEFF1FC911000080B586B000AFF86097
:10116000B9607A60BB68002B03D1144B180001F002
:1011700003F87B68002B03D1114B180000F0FCFF33
:1011800000237B61BB681B7F002B02D00D4B7B6172
:101190000FE07A68B968FB681800FFF7FBFB0300F3
:1011A0007B617B69002B04D1FB684021180001F0B2
:1011B00006FC7B691800BD4606B080BD60320000A9
:1011C000843200004C04000090B587B000AF786016
:1011D00039603B68002B03D1274B180000F0CCFF8F
:1011E0003B683B6100237B617B680222DA700F243D
:1011F0003A1939697B681800FFF760FC03007B61CE
:101200003B191B78002B02D17B69002B30D03B6946
:101210001B680422134007D07B69184A934203D00D
:101220007B69174A93420FD17B689B78DBB21A0027
:101230002023134008D07B68180001F00FFC031E28
:1012400002D08A23DB007B613B6900221A777B682E
:101250004021180001F0E1FB3B691B6A002B07D01D
:101260003B691C6A3B695B6A7A6939697868A0479F
:10127000C046BD4607B090BDF03200004E040000ED
:101280005104000080B500AF044B1B68044A1900EC
:101290001000FFF745FDC046BD4680BD8CFEFF1F18
:1012A0000060064080B584B000AF78607B681B0C9E
:1012B000084A94466344FB60FB6819687B681B041A
:1012C0001B0C01229A40FB680A431A60C046BD46C7
:1012D00004B080BD0070044080B584B000AF786079
:1012E0000023FB6006E00C4A7B68934206D0FB6853
:1012F0000133FB60FB68002BF5D000E0C046FB68C3
:10130000002B03D0054B180000F036FFFB681800D7
:10131000BD4604B080BDC0460000044074340000E7
:1013200080B584B000AF786039603B68002B03D192
:101330001E4B180000F020FF7B681800FFF7CCFF61
:101340000300FB601A4B1800FFF7ACFF3B681B78EB
:101350005B0002221A403B68DB789B0004210B40B3
:101360001A433B689B78DB0008210B401A433B681B
:101370005B781B0130210B401A437B681A603B6885
:101380009B79DB0078221A403B681B799B00042183
:101390000B401A433B685B79190003230B401A4347
:1013A0007B685A60C046BD4604B080BDB4340000BE
:1013B0000000381080B582B000AF78607B68002BE9
:1013C00003D10E4B180000F0D7FE7B6800221A7084
:1013D0007B6800225A707B6800229A707B6800222A
:1013E000DA707B6801221A717B6801225A717B686E
:1013F00000229A71C046BD4602B080BDD8340000BC
:1014000080B500AF044B1A68044B1B6804481900F0
:101410009047C046BD4680BD9CFEFF1F98FEFF1F43
:101420000040054080B582B000AF786039607B68CD
:10143000DB78DBB21A001023134009D00B4B1B687A
:101440000B4A3968890089587A681000984708E083
:10145000084B1B68064A3968890089587A68100069
:101460009847C046BD4602B080BDC046A4FEFF1FDF
:10147000A0FEFF1FA8FEFF1F80B500AF074B1B6833
:10148000002B03D1064B180000F076FE054B00211F
:101490001800FFF7C7FFC046BD4680BDA0FEFF1F76
:1014A000B83600000060074080B584B000AF7860B7
:1014B0007B681B0C084A94466344FB60FB68196810
:1014C0007B681B041B0C01229A40FB680A431A60CC
:1014D000C046BD4604B080BD0070044080B584B0F5
:1014E00000AF78600223BB600023FB6009E00E4B75
:1014F000FA689200D3587A689A4207D0FB680133A1
:10150000FB60FA68BB689A42F1D300E0C046FA6813
:10151000BB689A4203D3054B180000F02DFEFB6810
:101520001800BD4604B080BDE4360000F43600006B
:1015300080B582B000AF786039603B68002B03D182
:101540002D4B180000F018FE7B681800FFF7C6FF4F
:1015500002002A4B9200D3581800FFF7A5FF3B6802
:101560001B781A0007231A407B681A603B68DB78F7
:101570005B0120221A403B685B78590280239B0064
:101580000B401A433B685B7999048023DB020B40D4
:101590001A433B68DB79190480235B020B401A4332
:1015A0003B689B79590480239B020B401A433B689C
:1015B0009B781906F0231B050B401A437B68842196
:1015C0005A503B681B79002B08D07B6884229B58BB
:1015D000C0221A437B6884215A5008E07B68842229
:1015E0009B58C02293431A007B6884215A50C046FE
:1015F000BD4602B080BDC04628370000EC36000072
:1016000080B582B000AF78607B68002B03D1104BAF
:10161000180000F0B1FD7B6800221A707B68002280
:101620005A707B680022DA707B6800221A717B682E
:1016300000225A717B6800229A717B680022DA715D
:101640007B6800229A70C046BD4602B080BDC0468D
:101650004C37000080B582B000AF0200FB1D1A704D
:10166000FB1D1B787F2B09D8FB1D1B781A001F233D
:101670001A40044B012191400A001A60C046BD4641
:1016800002B080BD00E100E080B584B000AFF8603A
:10169000B960FB1D1A70FB68BA689200D358094AFA
:1016A0001A40FB1D1B781904F0231B030B401A433F
:1016B0001100FB68BA689200D150C046BD4604B024
:1016C00080BDC046FFFFF0FF80B584B000AFF8607A
:1016D000B9607A603B607B68002B02D1084B012225
:1016E0001A707B68074A934203D07B68064A93428C
:1016F00002D1064B01221A70C046BD4604B080BD1F
:10170000B8FFFF1F4E04000051040000B9FFFF1F87
:1017100090B58BB000AF78600C0010001900FB1C76
:10172000221C1A70BB1C021C1A707B1C0A1C1A702B
:101730000C243B1918220021180001F046FB21005F
:101740007B18FA1C12781A717B1800225A71BB1C84
:101750001A787B189A607B1801221A737B187A1CFE
:101760001A617B1801225A617B1800221A607A18CC
:10177000174B18481900FFF7EFFC00F0F3FA0300CD
:1017800064337B6202E0012000F0F6FA124B1B7812
:10179000DBB2002B0AD1114B1B78DBB2002B05D139
:1017A00000F0E0FA02007B6A9342ECD80A4B002278
:1017B0001A700A4B1B78DBB2012B04D1074B0022B5
:1017C0001A70012300E000231800BD460BB090BD45
:1017D000ACFEFF1F00600640B9FFFF1FB8FFFF1FF0
:1017E00080B584B000AF3B1D1800FFF73DFB3B1DEB
:1017F000384A5A600020FEF7B9FE02003B1D364809
:101800001900FFF7B7FA354A354933480023FFF787
:101810006BFC314800232A221E21FFF779FF2E4856
:101820001F235B221E21FFF773FF2B4820235C221E
:101830001E21FFF76DFF284800230E221E21FFF70F
:1018400067FF2548202321221E21FFF761FF224840
:10185000102323221E21FFF75BFF1F4810232422A1
:101860001E21FFF755FF1C48102325221E21FFF7DC
:101870004FFF1948062326221E21FFF749FF16486D
:10188000282327221E21FFF743FF13480F23282276
:101890001E21FFF73DFF104809232E221E21FFF7CE
:1018A00037FF0D4809232D221E21FFF731FF0D4B75
:1018B0000A2205211800FFF7E7FE1F2001F04EF96C
:1018C000054815232A221E21FFF722FFC046BD46E8
:1018D00004B080BD90D0030000600640C91600002F
:1018E000ACFEFF1F00A0044080B500AF054B2021D7
:1018F000180001F04BF9044B01221A70C046BD4696
:1019000080BDC04640F00F40BAFFFF1F80B582B0D7
:1019100000AF786039603B68012B03D9064B180093
:1019200000F02AFC7B683A6804329200D358180011
:10193000BD4602B080BDC0467C39000080B500AF16
:10194000054B00211800FFF7E1FF0200034B1A606E
:10195000C046BD4680BDC04600B00340D4FEFF1F58
:1019600080B582B000AF0200FB1D1A70FB1D1B7812
:101970007F2B09D8FB1D1B781A001F231A40044B2C
:10198000012191400A001A60C046BD4602B080BDE8
:1019900000E100E080B582B000AF7860084A094BF2
:1019A000D358094A1A407B681906C0239B040B4090
:1019B00003491343034A8B50C046BD4602B080BD65
:1019C0000070044004100000FFFFFFFC80B582B0EF
:1019D00000AF0200FB1D1A70BB1D0A1C1A70FB1D14
:1019E0001B78052B4CD89A00284BD3181B689F46B0
:1019F000BB1D1B785A425341DBB21A00244B07210E
:101A0000180001F0F8F83CE0BB1D1B785A42534126
:101A1000DBB21A001E4B0421180001F0ECF830E094
:101A2000BB1D1B785A425341DBB21A00184B0621EA
:101A3000180001F0E0F824E0BB1D1B785A42534126
:101A4000DBB21A00134B0021180001F0D4F818E0A3
:101A5000BB1D1B785A425341DBB21A000C4B0321C9
:101A6000180001F0C8F80CE0BB1D1B785A42534126
:101A7000DBB21A00064B0521180001F0BCF800E0AB
:101A8000C046C046BD4602B080BDC046B439000065
:101A900000F00F4040F00F4080B582B000AF8023CF
:101AA0005B003D4A1900100001F0BFF800237B6085
:101AB0006BE03A4A7B68D3181B78012B5CD1384A1B
:101AC0007B68D3181B78012B27D1364A7B68D31843
:101AD0001B78002B0BD0334A7B68D3181B78013B53
:101AE000D9B2304A7B68D3180A1C1A7015E02D4A07
:101AF0007B68D3181B78002B0FD17B68DBB20021E9
:101B00001800FFF763FF274A7B68D31805221A7075
:101B1000234A7B68D31800221A70214A7B68D318A5
:101B20001B78002B2ED11F4A7B68D3181B78002B03
:101B30000BD01C4A7B68D3181B78013BD9B2194AD9
:101B40007B68D3180A1C1A701CE0164A7B68D318ED
:101B50001B78002B16D17B68DBB201211800FFF740
:101B600035FF104A7B68D31801221A700C4A7B6833
:101B7000D31801221A7005E07B68DBB2002118003F
:101B8000FFF724FF7B6801337B607B68052B90DDCA
:101B9000C046BD4602B080BD00800340D8FEFF1F96
:101BA000E0FEFF1FE8FEFF1F80B582B000AF1D4BB7
:101BB000F8225A601C4B01225A601A4B5A69194B81
:101BC000F8210A435A61184B5A69174B01210A43FD
:101BD0005A610320FFF7DEFE3B001800FFF710FDFF
:101BE0003B0007221A703B00104A19001000FFF753
:101BF0009FFC0E4B1021180001F023F880235B009E
:101C00000A4A1900100000F069FF112000F0DBFF04
:101C1000064B0121180001F020F8C046BD4602B075
:101C200080BDC04600F00F4040F00F4000800340F0
:101C300080B582B000AF0200FB1D1A70BB1D0A1CEC
:101C40001A70FB1D1B78044AB91D0978D154C0468F
:101C5000BD4602B080BDC046D8FEFF1F80B582B031
:101C600000AF00237B6007E0074A7B68D31800229F
:101C70001A707B6801337B607B68052BF4DDC046FE
:101C8000BD4602B080BDC046D8FEFF1F80B582B001
:101C900000AF0200FB1D1A70FB1D1B787F2B09D8BB
:101CA000FB1D1B781A001F231A40044B0121914091
:101CB0000A001A60C046BD4602B080BD00E100E0E7
:101CC00080B582B000AF786039603B68002B03D1EB
:101CD000054B180000F050FA3B685A1E7B689A606A
:101CE000C046BD4602B080BDCC39000080B500AF13
:101CF000084B8021180000F0FCFF074B1B680A33DB
:101D00001A00054B1A60BFF34F8FBFF36F8FC046A9
:101D1000BD4680BD00000440F0FEFF1F80B582B0CC
:101D200000AF3B001800FFF745FB3B000C4A1900D1
:101D30001000FFF7F5FA0A4B08211800FFF7C0FF63
:101D4000074B4021180000F0BDFF1C2000F0A2FF4F
:101D5000034B180000F0DCFFC046BD4602B080BD5A
:101D60000000044080B500AF024B1B681800BD4660
:101D700080BDC046F0FEFF1F80B584B000AF786024
:101D80007B68092B04D80D4B1B680133FB600CE00A
:101D90007B680A21180001F055F803001A00074B70
:101DA0001B68D318FB6000E030BF044B1B68FA6867
:101DB0009A42F9D8C046BD4604B080BDF0FEFF1F70
:101DC00080B500AF2E4B1B78012B1CD0022B34D0DA
:101DD000002B4CD12B4B1B68002B05D0294B1B68CB
:101DE0005A1E284B1A6048E000210220FFF720FF0E
:101DF00001210120FFF71CFF214B01221A70214B0A
:101E0000C8221A6039E01F4B1B68002B05D01D4B00
:101E10001B685A1E1B4B1A602FE000210120FFF7A0
:101E200007FF01210020FFF703FF154B02221A7064
:101E3000144BFA2252001A601FE0124B1B68002B51
:101E400005D0104B1B685A1E0E4B1A6015E000217E
:101E50000020FFF7EDFE01210220FFF7E9FE084B0D
:101E600000221A70074BFA2252001A6005E0044B58
:101E700000221A70FFF7F2FEC046C046BD4680BD84
:101E8000BCFFFF1FF4FEFF1F80B500AF1F4B1B7888
:101E9000002B1CD11E4B1B68002B05D01C4B1B6854
:101EA0005A1E1B4B1A602EE0184B01221A70184B59
:101EB00064221A6000210320FFF7BAFE00210420EB
:101EC000FFF7B6FE00210520FFF7B2FE1BE0104B26
:101ED0001B68002B05D00E4B1B685A1E0C4B1A605A
:101EE00011E00A4B00221A70094B64221A6001218A
:101EF0000320FFF79DFE01210420FFF799FE012139
:101F00000520FFF795FEC046BD4680BDBCFFFF1F04
:101F1000F4FEFF1F80B584B000AFFA1C3B1D11001A
:101F2000180000F042FE0300012B0BD1FB1C1B78B4
:101F3000002B07D0194B1B780133DAB2174B1A70FC
:101F4000FFF78CFE154B1B78062B1FD89A00144BFD
:101F5000D3181B689F46FFF733FF1BE03B1D18009B
:101F600000F0ECFE16E03B1D180000F0EFFE11E063
:101F700000F0F4FE0EE000F0F6FE0BE0FFF784FF49
:101F800008E03B1D180000F0FFFE03E0034B0022B9
:101F90001A70C0460A20FFF7EFFEBEE7BBFFFF1F27
:101FA000F439000080B500AF0349044A80235B0286
:101FB0008B50C046BD4680BD0070044044100000F8
:101FC00080B500AFFFF7EEFF064B1800FEF7BEFB33
:101FD000054B1800FEF72AFB044B054A1A60C04661
:101FE000BD4680BD103A0000183A000080FEFF1F79
:101FF00000127A0080B584B000AF78607B681B0C5B
:10200000084A94466344FB60FB6819687B681B04BC
:102010001B0C01229A40FB680A431A60C046BD4669
:1020200004B080BD0070044080B584B000AFF8609B
:10203000B960FB1D1A70FB68BA689200D358094A50
:102040001A40FB1D1B781902E023DB000B401A43EA
:102050001100FB68BA689200D150C046BD4604B07A
:1020600080BDC046FFF8FFFF80B500AF2F4B1800C2
:10207000FFF7C0FF2E4B1800FFF7BCFF2D4B0322CC
:1020800000211800FFF7D0FF2A4B0322012118007E
:10209000FFF7CAFF274B032202211800FFF7C4FFF6
:1020A000244B012203211800FFF7BEFF214B012220
:1020B00004211800FFF7B8FF1E4B0122052118006C
:1020C000FFF7B2FF1B4B012206211800FFF7ACFF00
:1020D000184B012207211800FFF7A6FF164B01221B
:1020E00000211800FFF7A0FF134B00220121180068
:1020F000FFF79AFF104B032202211800FFF794FF0D
:102100000D4B022203211800FFF78EFF0A4B02221B
:1021100004211800FFF788FF074B01220521180052
:10212000FFF782FFC046BD4680BDC046090038109B
:102130000A0038100090044000A0044080B500AFB1
:102140000B4B9B78DBB21A000823134007D0084BD7
:102150009B78DBB2064A08210B43DBB29370054A39
:1021600088235B010021D150C046BD4680BDC046DA
:1021700000D007400070044070B505000E4C0F48B9
:10218000210000F03CFE2100280000F038FE0C4A3F
:10219000111DCB6F013BCB67002B07DB936F591CE5
:1021A00091670A221A7000F00DF870BD21000A2014
:1021B00000F02EF8F7E7C04670FFFF1F243A00003A
:1021C000F8FEFF1F18200149ABBE70472600020031
:1021D000202310B50400C2689A43E2608369826AD2
:1021E00093420CD000F0BAF8E368074A1A40102373
:1021F0001343E360A36AA3612369E3622360E26897
:10220000024B1340E36010BDEFCFFFFFBFBFFFFFE6
:10221000F8B5CA684E4B050013400C00CB6093061E
:1022200002D50800FFF7D4FFA268E668531C0FDA56
:10223000B3050DD402235B429B1AA36090235B027B
:102240001E432368E6605A1C22601D70E8B20AE053
:10225000404A3240022A07D00023A36080331E4345
:10226000E66001204042F8BD80213B4B090233402B
:102270008B420AD10021200000F048F9E3689B0658
:1022800002D52000FFF7A4FFE6689023F0225B024E
:1022900033431201E360164210D1606900F02DFE55
:1022A000002820D073051ED523002433236123602A
:1022B0000123E36192235B023343E3609021090130
:1022C000226826690B4224D0E16A8A4200D91100B3
:1022D000891B17D1731CE3622360E3695A1EA26055
:1022E00023633570B2E780277F00380000F0FEF8E6
:1022F0009423E2685B0233431A4320612060E76164
:10230000E260DBE72200300000F056F80028E1D060
:10231000A7E7511CE8B221601070E26A21688A4286
:1023200000D91100E269891B22635B0504D40A28E5
:1023300002D08A4200DD89E70023E6622660A360BE
:102340002200300000F038F8002800D089E77DE74F
:10235000FFFFF7FF8A10000010A0000070B5040016
:1023600005690168C26A124BC0680340E3608223BA
:102370000340022B02D00120404270BD80235B024B
:102380001840FAD0914200D211008D4208D10020AD
:10239000E268084BE56213402560A060E360ECE76B
:1023A000491B2200280000F007F80028EFD0E2E7E0
:1023B000FFFFF7FFFFFFFEFFF7B5D56801900E00A6
:1023C00014005769EB0205D5102338001D4300F0B7
:1023D0008EFDA061104B1D420FD0A169380000F0A6
:1023E00098FD002806DA80230120E268404213436A
:1023F000E3600FE0094B1D40E560320001993800B1
:1024000000F093FD43005B08F61AA3699E19A661CC
:102410000028E8D1FEBDC04610000200EFFFFDFF1E
:10242000F7B50027304EC51C3468AD08B84214D04B
:102430002900EB1C9C460A310191002C0FD10C3075
:1024400000F064F9431C08D080239B0503604560BD
:102450008460002F46D130601EE00020FEBD802247
:102460002368520593423AD1A7686368002F0BD0C6
:1024700080213A6849058A4206D17A680333D31825
:102480006360BB68A360EFE7AB4207DB634505DC35
:1024900080239B05236020000C30DFE7019A9342E4
:1024A00010D9802220008021920522600C30AA00E1
:1024B0005B1B82184905033B6560A2601160536095
:1024C0009760CBE7002F0AD19B00C01A00F01EF9DD
:1024D000431CC2D080239B0523606560DBE7270097
:1024E000A468AAE7B860D7E7B0FFFF1F10B5FFF7F1
:1024F00097FF041E05D11722034900F016FDFFF7D0
:1025000061FE200010BDC046393A0000F7B5394BD6
:10251000C56804000E0000921D4202D10227380057
:10252000FEBD43691800019300F0E7FC071EF5D1DA
:10253000009B012B05D0022B2CD0002B05D002379D
:10254000EDE7200000F05AF83618002EE6DBAB0469
:1025500004D52368E26A9A4200D2E362A069B042DD
:102560000EDCE26A2368934200D213002269191834
:102570000092891AB14203DB216B4218B24228DC77
:1025800020231D430023A662A36063601A4B1D40F5
:10259000E560C4E7019800F0AAFCE268002804DACC
:1025A00080231343E3600127B9E7E16A2368994276
:1025B00000D90B00A1695B1821695B1A920603D54B
:1025C000A26A934200DA1300834200DA0300F6188D
:1025D000BBE7361AAA0701D5711AA160EA0703D52D
:1025E000009A9B1AF31A6360009B9E1920232660B1
:1025F0009D43CBE703001000BFCFF7FFC2689307EE
:1026000005D1212201200E4B40421A607047202341
:10261000134012030AD5002B02D0806A0138F5E777
:102620000368826900699B18181AF7E7002B01D02C
:10263000806AEBE70368826900699B18181AE5E76E
:10264000B4FFFF1F37B5184C18492200002000F0D6
:102650007DF8802380225B00D2000021200000F062
:102660002FF8134C134D22002900012000F06EF8C2
:10267000802380225B00D2000021200000F020F89F
:102680000D4B1B680193022B0DDD0C4C2900220021
:10269000022000F05BF8802380225B00D200002142
:1026A000200000F00DF837BDF8FEFF1F513A000082
:1026B00034FFFF1F533A0000203A000070FFFF1F55
:1026C000F0B5C5680124AE070CD08024A400A24256
:1026D00014D08024E400A24206D080246400A242E8
:1026E0000CD0FF3C2000F0BD010001232431154334
:1026F00001610160C361C5600024F3E7024F5E1E03
:102700000124BE42F3D9EDE7FEFFFF0070B50C4D8A
:102710002B68002B01D10B4B2B600323C41C2E68AC
:102720009C433419200000F0C7F8002802D12C6027
:10273000300070BD0C220126034B76421A60F7E789
:10274000ACFFFF1FC0FFFF1FB4FFFF1FF7B50D0059
:1027500001901000140000F033F82B78722B1CD07D
:10276000772B1DD0612B26D1144A593B0220691CBE
:10277000032784460426012508782B2813D06228D5
:1027800016D0E260019A62611B0704D50222002183
:102790002000FFF7BBFE2000FEBD00230122E5E77D
:1027A00004230222E2E760463A4303430131E3E7B0
:1027B00032432B43FAE70024EDE7C04602800000D5
:1027C000F0B5C46889B00500A30722D0230718D448
:1027D0004769066900F022F8380000F082FB230503
:1027E00002D5300000F0F5FA0B4BA40DA4059C4275
:1027F00007D12022296A684600F091FB684600F064
:1028000015FB3C220021280000F0DFFA002009B06F
:10281000F0BD01204042FAE7000080AD73B500280A
:1028200013D000F053F80500280076BD3000604357
:10283000094BC01800F04AF8002801D001256D426C
:102840000134019BA342F1DCEEE7044B04001B685A
:10285000050001933C26F4E7F8FEFF1F203A000034
:10286000032310B5411C0200184217D1104C136805
:10287000104818189843204217D0DCB2501C002C86
:1028800011D0FF242402901C23420CD0FF2000040E
:102890000340581E8341D318D81C04E00130421E67
:1028A0001278002ADFD1401A10BD0432DFE7C0469B
:1028B00080808080FFFEFEFE034B0200181E02D0C7
:1028C00000209A42404170474000002070B5032626
:1028D000C36804001E4011D09B0611D5856AFFF71E
:1028E00077FCE268094B20001340E360FFF736FDF8
:1028F0000022060029002000FFF708FE300070BD0E
:10290000036882699D180369ED1AEAE7FFCFFFFFAC
:1029100080B500AF00F04CFA00F03EFA00F043FA48
:10292000FFF7FCF9FFF740F9FEF75AFFFFF7F2FA5D
:1029300000231800BD4680BD80B582B000AF020004
:10294000FB1D1A70FB1D1B785BB2803301D1012384
:1029500006E0FB1D1B785BB21800FDF7C3FF0023E8
:102960001800BD4602B080BD80B582B000AF78606F
:1029700039603A6880235B01134009D07B689B79FA
:10298000DAB23B681B0ADBB21343DAB27B689A7196
:102990003A688023DB01134009D07B689B79DAB267
:1029A0003B681B0ADBB21343DAB27B689A713B685F
:1029B000DAB27B68DA70C046BD4602B080BD80B531
:1029C00084B000AF786039603B684022134007D084
:1029D0007B689B78DBB240221343DAB27B689A7043
:1029E0003B682022134014D00F203B187A6892795C
:1029F0001A703B183A18127850218A431A703B1803
:102A00003A18127820210A431A707B683A18127813
:102A10009A71C046BD4604B080BD80B582B000AF9B
:102A2000786039603B684022134007D07B689B7810
:102A3000DBB240229343DAB27B689A703B68202273
:102A4000134007D07B689B79DBB270229343DAB2E4
:102A50007B689A71C046BD4602B080BD80B584B027
:102A600000AF78600023FB607B689B78DBB2382284
:102A70009343DAB27B689A70C0467B68DB78DBB23E
:102A80001A0020231340F8D1FB681800BD4604B09B
:102A900080BD80B584B000AF78607B68DB78DBB246
:102AA000FB607B689B79DBB21A004023134004D0A3
:102AB000FB688022D2011343FB607B689B79DBB209
:102AC0001A001023134004D0FB68802252011343E4
:102AD000FB60FB681800BD4604B080BD80B584B0C3
:102AE00000AF786039603B68FF221340FB600B2326
:102AF000FB1800221A703A6880235B00134026D02E
:102B00007B681B6840221A437B681A601FE0FB68E1
:102B10000122134012D00B217B181B787A680133F5
:102B2000DB00D31804331A687B181B7840210A4352
:102B300079680133DB00CB1804331A600B217B1852
:102B40001A787B1801321A70FB685B08FB60FB681F
:102B5000002BDCD1C046BD4604B080BD80B582B03C
:102B600000AF0200FB1D1A70FB1D1B785BB28033A7
:102B700001D1012306E0FB1D1B785BB21800FEF7B4
:102B800069FD00231800BD4602B080BD80B582B04B
:102B900000AF786039603A687B6811001800FDF773
:102BA00083FEC046BD4602B080BD80B586B000AF92
:102BB000786039601723FB1800221A700023180070
:102BC000BD4606B080BD80B582B000AF0200FB1DDF
:102BD0001A70FB1D1B785BB2803301D1012306E024
:102BE000FB1D1B785BB21800FEF7BAFE002318002D
:102BF000BD4602B080BD80B584B000AFF860B9605A
:102C0000FB1D1A70FB1D1B78002B05D10122BB6830
:102C10009A40FB689A6004E00122BB689A40FB6816
:102C20005A60C046BD4604B080BD80B582B000AFDA
:102C3000786039607B683A681A65C046BD4602B064
:102C400080BD80B582B000AF786039607B683A683B
:102C50009A60C046BD4602B080BD80B584B000AF6A
:102C600078600A00FB1C1A707B681B68FB60FB68BD
:102C700018229343FB60FB1C1B78DB0018221340D7
:102C8000FA681343FB607B68FA681A60C046BD4669
:102C900004B080BD80B582B000AF0200FB1D1A7089
:102CA000FB1D1B785BB2803301D1012306E0FB1DC5
:102CB0001B785BB21800FEF7E9FF00231800BD4641
:102CC00002B080BD80B584B000AF786039607B68A9
:102CD0001B68FB60FB6880229343FB60FA683B68DB
:102CE0001343FB607B68FA681A60C046BD4604B0B7
:102CF00080BD80B582B000AF786039607B681A68AB
:102D00003B681A437B681A60C046BD4602B080BD6E
:102D100080B584B000AF78607B681B68FB60FB689F
:102D200080229343FB60FB6801221343FB607B68B6
:102D3000FA681A60C046BD4604B080BD80B582B056
:102D400000AF7860C046BD4602B080BD80B582B09D
:102D500000AF7860C046BD4602B080BD80B500AF10
:102D6000C046BD4680BD80B500AF01210320FEF7FF
:102D70005FFF01210420FEF75BFF01210520FEF724
:102D800057FFC046BD4680BD80B582B000AF7860B9
:102D9000C046BD4602B080BD80B500AFFFF710F958
:102DA000C046BD4680BD80B500AFC046BD4680BDB3
:102DB00080B500AFFFF758F9C046BD4680BD10B5DD
:102DC000FFF740FCFFF7A4FD10BD10B500F074F84C
:102DD00010BD10B5002811D080210C3849050160C4
:102DE0008268002A0AD013688B4207D1436854686E
:102DF00003331B19436093688360F1E710BD70B51E
:102E00000D000400207800280FD0AB68013BAB60B8
:102E1000002B05DB2B685A1C2A6018700134F1E77F
:102E20002900FFF7F5F9431CF8D170BD10B5040077
:102E3000FFF716FD0100200000F065F810BD03004B
:102E40000B4321D4002931D00122D207030901E02C
:102E5000090112099942FBD9430801E049005208CF
:102E60009942FBD900E04908401A07D35241FAD3EE
:102E700001461046704749084018F7D29218FAD315
:102E80004018014610467047CB0F00D0494202104F
:102E900000D54042534008B5FFF7D4FF0CBC521098
:102EA00000D34042002A00D549421847F44600208A
:102EB00000F001F8604770478446043A09D383075D
:102EC00007D109060B0A19430B0C1943043A02C037
:102ED000FCD2043203D001700130013AFBD16046CC
:102EE000704703B469460220ABBE02B0704703B41A
:102EF00069460C20ABBE02B0704703B46946092096
:102F0000ABBE02B0704703B469460E20ABBE02B040
:102F1000704703B469460A20ABBE02B070470FB4D5
:102F200069460D20ABBE04B070470FB4694605205A
:102F3000ABBE04B07047FFFF2E2E2F64726976651A
:102F400072732F66736C5F636C6F636B2E633A31C1
:102F50003036203A20675F7874616C304672657154
:102F6000000000002E2E2F647269766572732F6642
:102F7000736C5F636C6F636B2E633A313236203A49
:102F800020675F7874616C333246726571000000AF
:102F90002E2E2F647269766572732F66736C5F6371
:102FA0006C6F636B2E633A323439203A20675F7856
:102FB00074616C3046726571000000002E2E2F6423
:102FC0007269766572732F66736C5F636C6F636B87
:102FD0002E633A323932203A207461726765744345
:102FE0006F6E66696700FFFF8A0500008A050000B2
:102FF000A8050000A8050000E0050000EA050000A3
:1030000010060000F405000010060000FE05000098
:10301000FE0500000806000080841E0000127A00F1
:103020000090044000A0044000F00F4040F00F402A
:103030002E2E2F647269766572732F66736C5F67CC
:1030400070696F2E633A3838203A20696E73746164
:103050006E6365203C2041525241595F53495A45A5
:1030600028735F6770696F426173657329000000A0
:103070002E2E2F647269766572732F66736C5F678C
:1030800070696F2E633A3935203A20636F6E666936
:10309000670000002E2E2F647269766572732F66AA
:1030A000736C5F6770696F2E633A313733203A2053
:1030B000696E7374616E6365203C204152524159C0
:1030C0005F53495A4528735F666770696F42617341
:1030D000657329002E2E2F647269766572732F66D0
:1030E000736C5F6770696F2E633A313930203A2014
:1030F000636F6E66696700FF1400160018001A00FF
:103100001C001E00220028001C00200024002800B3
:103110002C003000380044003000380040004800E7
:10312000500058006800800050006000700080006F
:103130009000A000C000F000A000C000E00000016E
:10314000200140018001E00140018001C001000236
:10315000400280020003C0038002000380030004D9
:10316000800400050006800700050006000700082F
:103170000009000A000C000F2E2E2F64726976657C
:1031800072732F66736C5F6932632E633A31383520
:10319000203A20696E7374616E6365203C20415251
:1031A0005241595F53495A4528735F6932634261FE
:1031B00073657329000000002E2E2F6472697665F6
:1031C00072732F66736C5F6932632E633A353036E3
:1031D000203A206D6173746572436F6E6669672073
:1031E000262620737263436C6F636B5F487A00001E
:1031F0002E2E2F647269766572732F66736C5F6909
:1032000032632E633A353739203A206D6173746525
:1032100072436F6E666967002E2E2F647269766541
:1032200072732F66736C5F6932632E633A3130328A
:1032300034203A2078666572000000002E2E2F643C
:103240007269766572732F66736C5F6932632E6381
:103250003A31323236203A2068616E646C65000083
:103260002E2E2F647269766572732F66736C5F6998
:1032700032632E633A31323439203A2068616E6409
:103280006C6500002E2E2F647269766572732F664E
:10329000736C5F6932632E633A31323530203A20E5
:1032A00078666572000000002E2E2F6472697665C4
:1032B00072732F66736C5F6932632E633A313237F3
:1032C00036203A2068616E646C6500002E2E2F64F3
:1032D0007269766572732F66736C5F6932632E63F1
:1032E0003A31333439203A2068616E646C650000ED
:1032F0002E2E2F647269766572732F66736C5F6908
:1033000032632E633A31333633203A2069326348D0
:10331000616E646C650000002E2E2F647269766504
:1033200072732F66736C5F6932632E633A31343087
:1033300037203A20736C617665436F6E666967006B
:103340002E2E2F647269766572732F66736C5F69B7
:1033500032632E633A31343336203A20736C61760F
:1033600065436F6E6669672D3E736C617665416477
:103370006472657373203C20736C617665436F6E75
:103380006669672D3E75707065724164647265731D
:10339000730000002E2E2F647269766572732F669B
:1033A000736C5F6932632E633A31343830203A20CF
:1033B000736C617665436F6E666967002E2E2F64AD
:1033C0007269766572732F66736C5F6932632E6300
:1033D0003A31363436203A2068616E646C650000FC
:1033E0002E2E2F647269766572732F66736C5F6917
:1033F00032632E633A31363639203A2068616E6482
:103400006C6500002E2E2F647269766572732F66CC
:10341000736C5F6932632E633A31373032203A2061
:1034200068616E646C6500002E2E2F64726976658B
:1034300072732F66736C5F6932632E633A31373172
:1034400039203A2068616E646C6500002E2E2F646E
:103450007269766572732F66736C5F6932632E636F
:103460003A31373431203A2069326348616E646CF6
:103470006500FFFF2E2E2F647269766572732F66CA
:10348000736C5F6C70746D722E633A3837203A201B
:10349000696E7374616E6365203C204152524159DC
:1034A0005F53495A4528735F6C70746D7242617343
:1034B000657329002E2E2F647269766572732F66EC
:1034C000736C5F6C70746D722E633A3935203A20DC
:1034D000636F6E66696700002E2E2F6472697665D1
:1034E00072732F66736C5F6C70746D722E633A31F9
:1034F0003432203A20636F6E666967002E2E2F6487
:103500007269766572732F66736C5F7370692E6370
:103510003A313533203A20696E7374616E636520E9
:103520003C2041525241595F53495A4528735F73B9
:103530007069426173657329000000002E2E2F64AC
:103540007269766572732F66736C5F7370692E6330
:103550003A343239203A20636F6E66696720262636
:1035600020737263436C6F636B5F487A00000000E6
:103570002E2E2F647269766572732F66736C5F737B
:1035800070692E633A343936203A20636F6E66696B
:10359000670000002E2E2F647269766572732F66A5
:1035A000736C5F7370692E633A373630203A207837
:1035B000666572002E2E2F647269766572732F66AF
:1035C000736C5F7370692E633A383231203A206829
:1035D000616E646C650000002E2E2F647269766542
:1035E00072732F66736C5F7370692E633A38343868
:1035F000203A2068616E646C652026262078666516
:10360000720000002E2E2F647269766572732F6629
:10361000736C5F7370692E633A393139203A2068D0
:10362000616E646C650000002E2E2F6472697665F1
:1036300072732F66736C5F7370692E633A39343519
:10364000203A2068616E646C650000002E2E2F64A5
:103650007269766572732F66736C5F7370692E631F
:103660003A393731203A2068616E646C6500000099
:103670002E2E2F647269766572732F66736C5F737A
:1036800070692E633A31303033203A2068616E64BD
:103690006C6500002E2E2F647269766572732F663A
:1036A000736C5F7370692E633A31303133203A2086
:1036B00068616E646C6500002E2E2F6472697665F9
:1036C00072732F66736C5F7370692E633A31303694
:1036D00030203A20735F73706948616E646C655B7B
:1036E000305D00FF008003400090034018003C1054
:1036F00019003C102E2E2F647269766572732F6646
:10370000736C5F74706D2E633A3832203A20696EA4
:103710007374616E6365203C2074706D41727261D8
:1037200079436F756E7400002E2E2F647269766572
:1037300072732F66736C5F74706D2E633A38392024
:103740003A20636F6E666967000000002E2E2F64BA
:103750007269766572732F66736C5F74706D2E6319
:103760003A313433203A20636F6E66696700000097
:103770002E2E2F647269766572732F66736C5F7478
:10378000706D2E633A313739203A2063686E6C5081
:103790006172616D730000002E2E2F647269766570
:1037A00072732F66736C5F74706D2E633A313830AC
:1037B000203A2070776D467265715F487A0000008C
:1037C0002E2E2F647269766572732F66736C5F7428
:1037D000706D2E633A313831203A206E756D4F6628
:1037E00043686E6C730000002E2E2F64726976653C
:1037F00072732F66736C5F74706D2E633A3138325A
:10380000203A20737263436C6F636B5F487A0000E9
:103810002E2E2F647269766572732F66736C5F74D7
:10382000706D2E633A333831203A2063686E6C4EE7
:10383000756D626572203C2046534C5F464541548D
:103840005552455F54504D5F4348414E4E454C5F85
:10385000434F554E546E2862617365290000000085
:103860002E2E2F647269766572732F66736C5F7487
:10387000706D2E633A343334203A2063686E6C4E98
:10388000756D626572203C2046534C5F464541543D
:103890005552455F54504D5F4348414E4E454C5F35
:1038A000434F554E546E2862617365290000000035
:1038B0002E2E2F647269766572732F66736C5F7437
:1038C000706D2E633A343638203A2063686E6C4E41
:1038D000756D626572203C2046534C5F46454154ED
:1038E0005552455F54504D5F4348414E4E454C5FE5
:1038F000434F554E546E28626173652900000000E5
:103900002E2E2F647269766572732F66736C5F74E6
:10391000706D2E633A353136203A2063686E6C4EF6
:10392000756D626572203C2046534C5F464541549C
:103930005552455F54504D5F4348414E4E454C5F94
:10394000434F554E546E2862617365290000000094
:103950002E2E2F647269766572732F66736C5F7496
:10396000706D2E633A373639203A2063686E6C43A7
:103970006F756E7420213D202D3100FF2E2E2F6497
:103980007269766572732F66736C5F61646331363A
:103990002E683A353036203A206368616E6E656C69
:1039A00047726F7570203C204144435F525F434F24
:1039B000554E5400F0190000081A0000201A0000AB
:1039C000381A0000501A0000681A00002E2E2F64CA
:1039D0007269766572732F66736C5F6C70746D724A
:1039E0002E683A333137203A207469636B73203E76
:1039F000203000FF561F00005C1F0000661F000003
:103A0000701F0000761F00007C1F0000821F000056
:103A1000010201000300FFFF0000000000000100A0
:103A2000030000002A2A2A206173736572742066DD
:103A300061696C6564203A20002A2A2A205F43735A
:103A400079735F616C6C6F63206661696C65640A91
:083A50000072007700FFFFFF88
:043A580000127A00DE
:04000003000000D524
:00000001FF
